:100000000C9458000C9480000C9480000C94800098
:100010000C9480000C9480000C9480000C94800060
:100020000C9480000C9480000C9480000C94800050
:100030000C9480000C9480000C9480000C94800040
:100040000C94CC030C9480000C9480000C948000E1
:100050000C9480000C9480000C9480000C94800020
:100060000C9416040C948000000000002500280069
:100070002B00040404040404040402020202020229
:10008000030303030303010204081020408001025C
:1000900004081020010204081020000000080002DB
:1000A0000100000304070000000000000000350507
:1000B00011241FBECFEFD8E0DEBFCDBF11E0A0E01E
:1000C000B1E0E0EBFCE002C005900D92A234B10774
:1000D000D9F722E0A2E4B1E001C01D92AD31B20730
:1000E000E1F710E0C8E5D0E004C02197FE010E94CE
:1000F0005006C735D107C9F70E9455050C9456061E
:100100000C94000008950895AF92BF92CF92DF92B1
:10011000EF92FF920F931F93CF93DF936C017B01BC
:100120008B01040F151FEB015E01AE18BF08C0174D
:10013000D10759F06991D601ED91FC910190F081C0
:10014000E02DC6010995892B79F7C501DF91CF9183
:100150001F910F91FF90EF90DF90CF90BF90AF90E5
:10016000089590E0FC01E656FF4F2491FC01EA5708
:10017000FF4F3491FC01EE58FF4FE491EE23C9F09C
:10018000222339F0233001F1A8F4213019F1223073
:1001900029F1F0E0EE0FFF1FE859FF4FA591B49150
:1001A0008FB7F894EC91611126C030953E233C93B3
:1001B0008FBF08952730A9F02830C9F0243049F7BF
:1001C000809180008F7D03C0809180008F77809325
:1001D0008000DFCF84B58F7784BDDBCF84B58F7D82
:1001E000FBCF8091B0008F778093B000D2CF809109
:1001F000B0008F7DF9CF3E2BDACF3FB7F8948091D6
:10020000F9019091FA01A091FB01B091FC0126B592
:10021000A89B05C02F3F19F00196A11DB11D3FBF3E
:10022000BA2FA92F982F8827BC01CD01620F711D0D
:10023000811D911D42E0660F771F881F991F4A9507
:10024000D1F708958F929F92AF92BF92CF92DF9293
:10025000EF92FF924B015C010E94FD006B017C015B
:100260000E94FD006C197D098E099F09683E73404C
:1002700081059105A8F321E0821A9108A108B1082F
:1002800088EEC80E83E0D81EE11CF11C8114910495
:10029000A104B10429F7FF90EF90DF90CF90BF90B9
:1002A000AF909F908F900895089520918301260F1D
:1002B0003327331F21323105ECF42091CC01FC01AE
:1002C00090E080E0243069F082E00895A0918301FD
:1002D0002191AC014D595E4FA40FB52FB11D2C9348
:1002E0000196861798F380918301680F60938301CC
:1002F00080E0089581E008951092CC0181E0809320
:10030000CB011092A60161E082E10E94B10061E0A0
:1003100083E10E94B100E9EBF0E080818E7F808371
:1003200080818D7F808388E48093B80085E480930A
:10033000BC000895CF93DF9391E0909362018823EE
:10034000B9F0C091B800D091BA008091BC008A7B0E
:100350008093BC0060E082E10E94B10060E083E134
:100360000E94B1000E947C01D093BA00C093B800F3
:10037000DF91CF9108950895E091040280910302E6
:10038000E81730F4F0E0EE5BFE4F808190E00895D6
:100390008FEF9FEF089590910402809103022FEF59
:1003A0003FEF981748F4E92FF0E0EE5BFE4F208115
:1003B00030E09F5F90930402C90108958091030289
:1003C00090910402891B990B0895CF92DF92EF92CE
:1003D000FF920F931F93CF93DF937C01CB018A0190
:1003E0002091D201222389F0EB016B01C40ED51EAE
:1003F000CC15DD0569F06991D701ED91FC91019073
:10040000F081E02DC7010995F3CF642F0E945501BB
:10041000C801DF91CF911F910F91FF90EF90DF9076
:10042000CF900895CF93DF931F92CDB7DEB7698346
:100430002091D2012223F9F020910102203258F0BC
:1004400021E030E0FC013383228390E080E00F90D4
:10045000DF91CF91089580910202E82FF0E0ED52F4
:10046000FE4F998190838F5F8093020280930102F7
:1004700081E090E0ECCF61E0CE0101960E94550151
:10048000F7CFCF92DF92EF92FF920F931F93CF930C
:10049000DF93FC01C48121E02093D201C093F301DA
:1004A00010920202109201028385682B85E092E08F
:1004B0000E941202D0910102D13208F092C00E9433
:1004C000FD006B017C018091CC01811165C082E04F
:1004D0008093CC0181E08093CB018FEF8093CA01A0
:1004E0001092C901D093C801A3EDB1E0E8EAF1E0B0
:1004F00080E0D81385C01092A7018091A701CC0F8E
:10050000C82BC093A7018091A601813009F07CC05F
:100510001092A6010E94FD006B017C018091A70151
:100520008093BB008091CE019091CF01A091D0012A
:10053000B091D101892B8A2B8B2B99F00E94FD0061
:100540000091CE011091CF012091D0013091D101C5
:100550006C197D098E099F090617170728073907A7
:10056000E0F18091BC0083FDD9CF85EC8093BC0085
:100570000E94FD006B017C018091CC01823009F466
:1005800045C08091CA018F3F61F18091CA018032DC
:1005900041F18091CA0125C08091CE019091CF0197
:1005A000A091D001B091D101892B8A2B8B2B09F41A
:1005B0008ACF0E94FD000091CE011091CF012091C1
:1005C000D0013091D1016C197D098E099F09061760
:1005D00017072807390708F076CF8091CD010E94D0
:1005E0009A0110920202109201021092D201DF9140
:1005F000CF911F910F91FF90EF90DF90CF900895D2
:100600009D9191938F5F75CF85EEB0CF8091CE0194
:100610009091CF01A091D001B091D101892B8A2B6B
:100620008B2B09F4A9CF0E94FD000091CE011091FF
:10063000CF012091D0013091D1016C197D098E0933
:100640009F09061717072807390708F095CFC5CF68
:1006500090E080E008950F931F93CF938C01C62FF5
:100660000E9441026C2F6460C8010E9441026C2FFD
:100670006B7FC8010E94410283EC90E00197F1F783
:10068000CF911F910F9108950F931F93CF93DF93F5
:100690008C01D62FC42F607F642B0E942B0380E136
:1006A000D89FB00111246C2BC801DF91CF911F910D
:1006B0000F910C942B03CF93DF93CDB7DEB7289720
:1006C0000FB6F894DEBF0FBECDBF98E0E0E0F1E0DA
:1006D000DE01119601900D929A95E1F79091190221
:1006E000961708F46FEF262F30E0220F331F41E0FA
:1006F00050E04C0F5D1F240F351FF9016081680F1A
:10070000606840E081E192E028960FB6F894DEBF81
:100710000FBECDBFDF91CF910C94440341E00E9406
:10072000440381E090E0089585ED8093BC008091C2
:10073000CE019091CF01A091D001B091D101079647
:10074000A11DB11D23E0B695A795979587952A958C
:10075000D1F72091BC0024FD03C01092CC01089574
:100760004091CE015091CF016091D0017091D101A3
:10077000452B462B472B69F30097A105B10541F0A6
:100780002AE22A95F1F700C00197A109B109E1CF4A
:100790008091CD010C949A011F920F920FB60F9287
:1007A00011242F933F938F939F93AF93BF93809187
:1007B000F5019091F601A091F701B091F801309107
:1007C000F40123E0230F2D3758F50196A11DB11D2B
:1007D0002093F4018093F5019093F601A093F70123
:1007E000B093F8018091F9019091FA01A091FB0179
:1007F000B091FC010196A11DB11D8093F901909368
:10080000FA01A093FB01B093FC01BF91AF919F91BE
:100810008F913F912F910F900FBE0F901F901895C1
:1008200026E8230F0296A11DB11DD2CF1F920F9271
:100830000FB60F9211242F933F934F935F936F93B3
:100840007F938F939F93AF93BF93EF93FF93809189
:10085000B900887F803609F44AC0F0F5883209F47F
:10086000A7C018F5803109F49BC0B8F4882309F4B7
:10087000F9C0883009F494C0FF91EF91BF91AF9116
:100880009F918F917F916F915F914F913F912F91A8
:100890000F900FBE0F901F901895883109F488C0F3
:1008A000803251F78093CA0114C0803409F49DC08E
:1008B00040F48033B9F38833F9F68093CA0185ECAC
:1008C000B0C0803509F485C0883509F496C08834F5
:1008D00099F60E949403D0CF883909F48CC038F57A
:1008E000883729F050F4883611F0803729F683E0F4
:1008F0008093CC011092A50157C0883809F47BC0C1
:10090000803919F0803809F0B7CF8091A501803285
:1009100008F071C0E091A50181E08E0F8093A501E0
:100920008091BB00F0E0EB57FE4F80833DC0803BE1
:1009300039F0E0F4803A09F479C0883A09F09CCFA4
:1009400084E08093CC011092840110928301E091A5
:10095000FF01F091000209958091830181110FC080
:1009600081E0809383011092630109C0803C09F407
:10097000A6CF883C09F4A3CF883B09F07DCFE09156
:10098000840181E08E0F80938401F0E0ED59FE4FE9
:1009900080818093BB00909184018091830129C064
:1009A0008091A7018093BB0085EC8093BC0064CF4D
:1009B0009091C9018091C801981758F5E091C9013B
:1009C00081E08E0F8093C901F0E0E855FE4F8081F1
:1009D000E9CFE091C90181E08E0F8093C901809138
:1009E000BB00F0E0E855FE4F80839091C9018091F3
:1009F000C8019817C8F285E8D8CFE091C90181E015
:100A00008E0F8093C9018091BB00F0E0E855FE4F46
:100A100080838091CB0181115CCF81E08093A6011E
:100A200084EA8093BC001092CC0126CF85EC8093A1
:100A3000BC001092CC018091A501803230F4E0918D
:100A4000A501F0E0EB57FE4F10826091A50170E028
:100A5000E091FD01F091FE0185E891E00995109289
:100A6000A5010ACF1092CA0134CFE5E0F2E013826B
:100A7000128288EE93E0A0E0B0E084839583A683A1
:100A8000B7838CE091E091838083E1E1F2E013820F
:100A900012828EE191E09183808387E2848380E1FA
:100AA000818782E0828713860895789484B5826076
:100AB00084BD84B5816084BD85B5826085BD85B502
:100AC000816085BD80916E00816080936E00109280
:100AD00081008091810082608093810080918100FB
:100AE000816080938100809180008160809380008C
:100AF0008091B10084608093B1008091B0008160EA
:100B00008093B00080917A00846080937A00809115
:100B10007A00826080937A0080917A00816080936D
:100B20007A0080917A00806880937A001092C100E8
:100B3000109204021092030210920202109201021B
:100B40000E947C0182E890E0909300028093FF0174
:100B500083E890E09093FE018093FD0110921602CD
:100B600080911B02823018F098E0909316028093D7
:100B7000190262E370E080E090E00E94220160913F
:100B80001C0281E192E00E94410268EE73E080E085
:100B900090E00E94220160E381E192E00E942B0339
:100BA000CBE4D6E4CE010197F1F760E381E192E076
:100BB0000E942B032197F1F760E381E192E00E940C
:100BC0002B0383E592E00197F1F760E281E192E087
:100BD0000E942B0360911602606240E081E192E086
:100BE0000E94440384E08093170240E06CE081E1BE
:100BF00092E00E94440340E061E081E192E00E94C3
:100C00004403CBE3DFE1CE010197F1F782E080936B
:100C1000180240E066E081E192E00E94440340E077
:100C200062E081E192E00E944403CE010197F1F776
:100C300088E080931C0260E081E192E00E94410222
:100C400040E061E081E192E00E944403CE0101971F
:100C5000F1F740E062E081E192E00E9444032197D5
:100C6000F1F760E080E00E945B034FE050E066E255
:100C700071E081E192E00E94840061E084E00E94E2
:100C80005B034AE050E066E371E081E192E00E949C
:100C90008400C0E0D0E02097F1F30E940000FBCF79
:100CA000EE0FFF1F0590F491E02D0994F894FFCF0B
:100CB0000000400014005400000000001202E50192
:100CC0002803BB01DE01CB01BC01000000008E0344
:100CD0008400280354015072616A77616C504B6143
:100CE000736879617000314B49323043533037308B
:020CF000000002
:00000001FF
