:100000000C94D5000C94FD000C94FD000C94FD00A4
:100010000C94FD000C94FD000C94FD000C94FD006C
:100020000C94FD000C94FD000C94FD000C94FD005C
:100030000C94FD000C94FD000C94FD000C94FD004C
:100040000C947A040C94FD000C94FD000C94FD00BB
:100050000C94FD000C94FD000C94FD000C94FD002C
:100060000C94C4040C94FD0000407A10F35A00A0D4
:10007000724E18090010A5D4E80000E87648170071
:1000800000E40B54020000CA9A3B000000E1F505B1
:10009000000080969800000040420F000000A086FB
:1000A00001000000102700000000E803000000002D
:1000B0006400000000000A000000000001000000D1
:1000C00000002C76D888DC674F0823DFC1DFAE59EB
:1000D000E1B1B796E5E3E453C63AE651997696E87E
:1000E000E6C28426EB898C9B62ED407C6FFCEFBC02
:1000F0009C9F40F2BAA56FA5F490055A2AF75C932D
:100100006B6CF9676DC11BFCE0E40D47FEF520E662
:10011000B500D0ED902E0300943577050080841E45
:10012000080000204E0A000000C80C333333330FA0
:10013000986E12831141EF8D2114893BE65516CF3D
:10014000FEE6DB18D1844B381BF77C1D901DA4BB49
:10015000E424203284725E228100C9F124ECA1E5FE
:100160003D2700000000250028002B0004040404A3
:100170000404040402020202020203030303030351
:10018000010204081020408001020408102001022E
:10019000040810200000000800020100000304070A
:1001A0000000000000000000E30511241FBECFEF97
:1001B000D8E0DEBFCDBF22E0A6E3B1E001C01D92D2
:1001C000A531B207E1F711E0A0E0B1E0E6E7FBE11D
:1001D00002C005900D92A633B107D9F710E0C5ED26
:1001E000D0E004C02197FE010E94C10BC43DD1079D
:1001F000C9F70E9403060C94B90D0C9400000895F1
:1002000008950895AF92BF92CF92DF92EF92FF923E
:100210000F931F93CF93DF936C017B018B01040F2E
:10022000151FEB015E01AE18BF08C017D10759F0CA
:100230006991D601ED91FC910190F081E02DC6010C
:100240000995892B79F7C501DF91CF911F910F9106
:10025000FF90EF90DF90CF90BF90AF90089590E027
:10026000FC01EC56FE4F2491FC01E058FE4F349106
:10027000FC01E459FE4FE491EE23C9F0222339F04A
:10028000233001F1A8F4213019F1223029F1F0E0F6
:10029000EE0FFF1FEE59FE4FA591B4918FB7F89462
:1002A000EC91611126C030953E233C938FBF089599
:1002B0002730A9F02830C9F0243049F78091800018
:1002C0008F7D03C0809180008F7780938000DFCF87
:1002D00084B58F7784BDDBCF84B58F7DFBCF8091D4
:1002E000B0008F778093B000D2CF8091B0008F7D27
:1002F000F9CF3E2BDACF3FB7F8948091ED01909182
:10030000EE01A091EF01B091F00126B5A89B05C0C8
:100310002F3F19F00196A11DB11D3FBFBA2FA92F84
:10032000982F8827BC01CD01620F711D811D911D81
:1003300042E0660F771F881F991F4A95D1F70895ED
:100340008F929F92AF92BF92CF92DF92EF92FF92E5
:100350004B015C010E947B016B017C010E947B01CF
:100360006C197D098E099F09683E734081059105CE
:10037000A8F321E0821A9108A108B10888EEC80EFE
:1003800083E0D81EE11CF11C81149104A104B10486
:1003900029F7FF90EF90DF90CF90BF90AF909F90A4
:1003A0008F90089520917701260F3327331F213234
:1003B0003105ECF42091C001FC0190E080E0243094
:1003C00069F082E00895A09177012191AC01495A2A
:1003D0005E4FA40FB52FB11D2C930196861798F38D
:1003E00080917701680F6093770180E0089581E044
:1003F00008951092C00181E08093BF0110929A018C
:1004000061E082E10E942F0161E083E10E942F01FF
:10041000E9EBF0E080818E7F808380818D7F808317
:1004200088E48093B80085E48093BC000895CF935E
:10043000DF9391E0909356018823B9F0C091B80002
:10044000D091BA008091BC008A7B8093BC0060E0B0
:1004500082E10E942F0160E083E10E942F010E944F
:10046000F901D093BA00C093B800DF91CF910895FD
:100470000895E091F8018091F701E81730F4F0E079
:10048000EA5CFE4F808190E008958FEF9FEF089522
:100490009091F8018091F7012FEF3FEF981748F402
:1004A000E92FF0E0EA5CFE4F208130E09F5F9093FF
:1004B000F801C90108958091F7019091F801891B15
:1004C000990B0895CF92DF92EF92FF920F931F93B3
:1004D000CF93DF937C01CB018A012091C6012223B7
:1004E00089F0EB016B01C40ED51ECC15DD0569F05A
:1004F0006991D701ED91FC910190F081E02DC70148
:100500000995F3CF642F0E94D201C801DF91CF91EA
:100510001F910F91FF90EF90DF90CF900895CF93B0
:10052000DF931F92CDB7DEB769832091C6012223E6
:10053000F9F02091F501203258F021E030E0FC0183
:100540003383228390E080E00F90DF91CF91089574
:100550008091F601E82FF0E0E953FE4F99819083F6
:100560008F5F8093F6018093F50181E090E0ECCFFE
:1005700061E0CE0101960E94D201F7CFCF92DF92C7
:10058000EF92FF920F931F93CF93DF93FC01C481EF
:1005900021E02093C601C093E7011092F60110926A
:1005A000F5018385682B89EF91E00E948F02D0913D
:1005B000F501D13208F092C00E947B016B017C01F1
:1005C0008091C001811165C082E08093C00181E00B
:1005D0008093BF018FEF8093BE011092BD01D09335
:1005E000BC01A7ECB1E0ECE9F1E080E0D81385C0F4
:1005F00010929B0180919B01CC0FC82BC0939B0153
:1006000080919A01813009F07CC010929A010E9479
:100610007B016B017C0180919B018093BB008091E9
:10062000C2019091C301A091C401B091C501892B71
:100630008A2B8B2B99F00E947B010091C2011091B3
:10064000C3012091C4013091C5016C197D098E0947
:100650009F090617170728073907E0F18091BC00AA
:1006600083FDD9CF85EC8093BC000E947B016B0198
:100670007C018091C001823009F445C08091BE01A7
:100680008F3F61F18091BE01803241F18091BE01C6
:1006900025C08091C2019091C301A091C401B09185
:1006A000C501892B8A2B8B2B09F48ACF0E947B01F1
:1006B0000091C2011091C3012091C4013091C50184
:1006C0006C197D098E099F09061717072807390736
:1006D00008F076CF8091C1010E9417021092F601B6
:1006E0001092F5011092C601DF91CF911F910F91E9
:1006F000FF90EF90DF90CF9008959D9191938F5F41
:1007000075CF85EEB0CF8091C2019091C301A091C9
:10071000C401B091C501892B8A2B8B2B09F4A9CF79
:100720000E947B010091C2011091C3012091C4017C
:100730003091C5016C197D098E099F0906171707AD
:100740002807390708F095CFC5CF90E080E00895DD
:100750000F931F93CF93DF93EC01888199810097CA
:1007600059F02A813B812617370730F081E0DF916D
:10077000CF911F910F9108958B016F5F7F4F0E9462
:10078000EC0C009759F0998388831B830A832C8192
:100790003D81232B59F7FC011082E8CF80E0E7CFA1
:1007A0000F931F93CF938C01C62F0E94BE026C2F14
:1007B0006460C8010E94BE026C2F6B7FC8010E945A
:1007C000BE0283EC90E00197F1F7CF911F910F915A
:1007D00008950F931F93CF93DF938C01D62FC42FCF
:1007E000607F642B0E94D00380E1D89FB001112468
:1007F0006C2BC801DF91CF911F910F910C94D00306
:10080000CF93DF93CDB7DEB728970FB6F894DEBF4E
:100810000FBECDBF98E0E6E0F1E0DE011196019059
:100820000D929A95E1F790910D02981708F48FEFC9
:1008300090E0880F991F21E030E02C0F3D1F820FC0
:10084000931FFC016081606840E085E092E028969B
:100850000FB6F894DEBF0FBECDBFDF91CF910C94E1
:10086000E90340E061E085E092E00E94E9038BE368
:100870009FE10197F1F7089541E00E94E90381E0CB
:1008800090E0089585ED8093BC008091C201909125
:10089000C301A091C401B091C5010796A11DB11D6E
:1008A00023E0B695A795979587952A95D1F720913E
:1008B000BC0024FD03C01092C00108954091C20104
:1008C0005091C3016091C4017091C501452B462B25
:1008D000472B69F30097A105B10541F02AE22A955B
:1008E000F1F700C00197A109B109E1CF8091C101E1
:1008F0000C9417021F920F920FB60F9211242F9390
:100900003F938F939F93AF93BF938091E901909111
:10091000EA01A091EB01B091EC013091E80123E0F4
:10092000230F2D3758F50196A11DB11D2093E80125
:100930008093E9019093EA01A093EB01B093EC015D
:100940008091ED019091EE01A091EF01B091F00145
:100950000196A11DB11D8093ED019093EE01A0932E
:10096000EF01B093F001BF91AF919F918F913F91B3
:100970002F910F900FBE0F901F90189526E8230F10
:100980000296A11DB11DD2CF1F920F920FB60F92EA
:1009900011242F933F934F935F936F937F938F9384
:1009A0009F93AF93BF93EF93FF938091B900887F9C
:1009B000803609F44AC0F0F5883209F4A7C018F56A
:1009C000803109F49BC0B8F4882309F4F9C0883059
:1009D00009F494C0FF91EF91BF91AF919F918F91D6
:1009E0007F916F915F914F913F912F910F900FBE2B
:1009F0000F901F901895883109F488C0803251F704
:100A00008093BE0114C0803409F49DC040F480334B
:100A1000B9F38833F9F68093BE0185ECB0C0803518
:100A200009F485C0883509F496C0883499F60E9487
:100A30004204D0CF883909F48CC038F5883729F0C2
:100A400050F4883611F0803729F683E08093C00196
:100A50001092990157C0883809F47BC0803919F089
:100A6000803809F0B7CF80919901803208F071C0C9
:100A7000E091990181E08E0F809399018091BB00F4
:100A8000F0E0E758FE4F80833DC0803B39F0E0F452
:100A9000803A09F479C0883A09F09CCF84E08093C9
:100AA000C0011092780110927701E091F301F0916A
:100AB000F40109958091770181110FC081E0809345
:100AC00077011092570109C0803C09F4A6CF883CF9
:100AD00009F4A3CF883B09F07DCFE091780181E054
:100AE0008E0F80937801F0E0E95AFE4F8081809369
:100AF000BB00909178018091770129C080919B0182
:100B00008093BB0085EC8093BC0064CF9091BD01C5
:100B10008091BC01981758F5E091BD0181E08E0FDE
:100B20008093BD01F0E0E456FE4F8081E9CFE09173
:100B3000BD0181E08E0F8093BD018091BB00F0E08C
:100B4000E456FE4F80839091BD018091BC019817BF
:100B5000C8F285E8D8CFE091BD0181E08E0F809387
:100B6000BD018091BB00F0E0E456FE4F8083809190
:100B7000BF0181115CCF81E080939A0184EA809368
:100B8000BC001092C00126CF85EC8093BC0010926F
:100B9000C00180919901803230F4E0919901F0E038
:100BA000E758FE4F10826091990170E0E091F101E9
:100BB000F091F20189E791E00995109299010ACF2D
:100BC0001092BE0134CFE9EFF1E01382128288EE79
:100BD00093E0A0E0B0E084839583A683B78382E1AD
:100BE00091E091838083E5E0F2E01382128284E257
:100BF00091E09183808387E2848380E1818782E032
:100C0000828713860895CF93DF93CDB7DEB7AD9774
:100C10000FB6F894DEBF0FBECDBF789484B5826066
:100C200084BD84B5816084BD85B5826085BD85B590
:100C3000816085BD80916E00816080936E0010920E
:100C40008100809181008260809381008091810089
:100C5000816080938100809180008160809380001A
:100C60008091B10084608093B1008091B000816078
:100C70008093B00080917A00846080937A008091A4
:100C80007A00826080937A0080917A0081608093FC
:100C90007A0080917A00806880937A001092C10077
:100CA0001092F8011092F7011092F6011092F501DE
:100CB0000E94F9018FEF90E09093F4018093F3018B
:100CC00080E091E09093F2018093F10110920A028A
:100CD00080910F02823018F098E090930A0280937E
:100CE0000D0262E370E080E090E00E94A00160915C
:100CF000100285E092E00E94BE0268EE73E080E0A0
:100D000090E00E94A00160E385E092E00E94D003A1
:100D10000BE416E4C8010197F1F760E385E092E087
:100D20000E94D003C8010197F1F760E385E092E0EB
:100D30000E94D00383E592E00197F1F760E285E03D
:100D400092E00E94D00360910A02606240E085E078
:100D500092E00E94E90384E080930B0240E06CE0A3
:100D600085E092E00E94E9030E94310482E08093D2
:100D70000C0240E066E085E092E00E94E90340E07A
:100D800062E085E092E00E94E9030BE31FE1C80105
:100D90000197F1F788E08093100260E085E092E02F
:100DA0000E94BE020E94310440E062E085E092E0D1
:100DB0000E94E903C8010197F1F780E00E94000456
:100DC00048E050E06CE271E085E092E00E940201B0
:100DD00080E4B82E90E0C92E90E0D92E19A618A66E
:100DE0001BA61AA61DA61CA670E060E0CE01889680
:100DF0000E94A80328A539A58111A2C0211531059B
:100E000019F0C9010E94630C19A618A61DA61CA6FC
:100E10001BA61AA6B0927C0080917A008064809311
:100E20007A0080917A0086FDFCCF60917800709105
:100E300079001BA21AA21DA21CA21FA21EA2072E8D
:100E4000000C880B990B0E941F0A20E030E040EA5A
:100E500050E40E945A0A20E030E040E85AE30E9441
:100E60005A0A2AE037ED43E25CE30E944F0B8E0101
:100E70000F5F1F4F22E044E00E94C8077C010097EB
:100E800009F46DC0FC0101900020E9F731978F0152
:100E9000081B190BB801CE0182960E94A8032AA153
:100EA0003BA1811155C02115310519F0C9010E94DE
:100EB000630C1BA21AA21FA21EA21DA21CA288A51F
:100EC00099A5009709F453C06AA17BA1611571052A
:100ED00009F44BC04AA55BA52EA13FA142175307B9
:100EE00008F443C00E94B20D8EA19FA19DA78CA7BC
:100EF0001FA21EA28AA19BA1009711F00E94630C61
:100F000081E00E9400044CA55DA568A579A585E057
:100F100092E00E94020164EF71E080E090E00E94A4
:100F2000A0010E94310488A599A5009711F00E94A4
:100F3000630CC114D10409F451CF0E9400004ECFBC
:100F40001DA61CA664E371E0C9010E94B20D62CF28
:100F50001FA30EA3B701C9010E94B20DB0CF8AA191
:100F60009BA1009709F0A3CFA4CF0E94630C8AA194
:100F70009BA199A788A78CA19DA19BA78AA78EA1B9
:100F80009FA19DA78CA71BA21AA21DA21CA2B0CF35
:100F9000EF920F931F93CF93DF93E80134E047FD67
:100FA00034E1042E000C550B57FF03C051954195B9
:100FB0005109E32E022F242FAE010E94E607CE0135
:100FC000DF91CF911F910F91EF900895A9E0B0E0CC
:100FD000ECEEF7E00C941E0B6A01F22EB02E102FEF
:100FE000FBE3AF2EA01608F41BE31F5F012F27E0E1
:100FF000AE014F5F5F4F0E944509BC018981982F68
:101000009970913009F43FC09BE2E1FC04C09E2D31
:101010009170E0FC3AC05E2D5071E82FE87083FFBC
:1010200046C084E0911101C083E0EF2DE81B8F15CD
:1010300008F0E0E0D6018E2F20E2552351F19923EC
:1010400029F0D6019C93C60101966C0196012D5F93
:101050003F4FE2FE24C08EE4D6018C9391E41196BA
:101060009C93119712968C93D9018E2F90E2811147
:101070001BC0E20FF32FF11D10828EEF9FEF299618
:10108000ECE00C943A0B9DE2C6CF90E2C4CF2D93D6
:1010900081508111FCCFCE0ED11CE0E0D0CF8EE686
:1010A000D6018C9391E6DBCF9D938150E0CF482F02
:1010B000447082FF3DC084E0911101C083E08F1530
:1010C00010F4EF2DE81BD6018E2F20E2552309F1F5
:1010D000992329F0D6019C93C60101966C019601D3
:1010E0002D5F3F4FE2FE1BC089E4D6018C938EE456
:1010F00011968C93119786E412968C93D9018E2FBA
:1011000090E2882309F4B5CF9D938150FACF2D93B7
:1011100081508111FCCFCE0ED11CE0E0D9CF89E601
:10112000D6018C938EE611968C93119786E6E4CFC8
:101130009B0177FF02C030E020E0A1E0B0E0911118
:1011400002C0B0E0A0E0F9013196AE0FBF1F8B2CBA
:10115000912CBB2009F461C05401EFEFAE1ABE0A16
:10116000AA0DBB1DFA161B0619F014F04F2D4A1BD1
:10117000511188C0E3FC59C07601A42FB0E2A1113F
:101180004FC0C40ED11C992309F45BC040E0D601C6
:101190001196F60190836D01552309F448C0012F83
:1011A000060F9A81582F507184FF03C0913309F4C0
:1011B000015010160CF047C0093008F008E0EEE2CC
:1011C000FE2E5B01A01AB1088501919481949108CB
:1011D0002F3F320729F4D601FC92F60131966F01B8
:1011E0006217730794F1021713077CF5DB01A21B4A
:1011F000B30BAA24A394B12CAC0EBD1EAA0DBB1D2B
:1012000011968C9121503109D60111962815390576
:10121000F4F0F60180836D01DBCFB12CA12CA0CFBF
:10122000F701B1937F01A150AACF9111B0CFD601A0
:10123000942F50E302C05D9391509111FCCFC40EE6
:10124000D11C40E0ACCF01E0BACF80E3DBCF621726
:10125000730731F4963388F4953311F4552369F00C
:10126000F6018083FD01842F90E2811108C0A40F54
:10127000B11D1C9290E080E002CF81E3F1CF919309
:101280008150F3CF911183CF8ACF283008F027E027
:101290003327DA01990F311D87FD916000966105B2
:1012A000710539F432602E5F3D9330E32A95E1F702
:1012B00008959F3F30F080387105610509F03C5F6B
:1012C0003C5F3D93913008F08068911DDF93CF9390
:1012D0001F930F93FF92EF92192F987F9695E92F06
:1012E00096959695E90FFF27EE53FF4F99273327E1
:1012F000EE24FF24A701E70105900894079428F441
:10130000360FE71EF81E491F511D660F771F881FF5
:10131000991F0694A1F70590079428F4E70EF81E8C
:10132000491F561FC11D770F881F991F661F0694FE
:10133000A1F70590079428F4F80E491F561FC71F00
:10134000D11D880F991F661F771F0694A1F705907E
:10135000079420F4490F561FC71FD81F990F661F07
:10136000771F881F0694A9F784911095177041F094
:10137000D695C79557954795F794E7941A95C1F771
:10138000E8E6F0E068941590159135916591959196
:1013900005907FE27395E118F10A430B560BC90BD8
:1013A000D009C0F7E10CF11E431F561FC91FD01D05
:1013B0007EF4703311F48A95E6CFE894015030F052
:1013C000080F0AF40027021708F4202F2395022F94
:1013D0007A3328F079E37D932A95E9F710C07D935D
:1013E0002A9589F6069497956795379517951794DA
:1013F000E118F10A430B560BC90BD00998F023955D
:101400007E9173957A3308F070E37C932013B8F7DC
:101410007E9170617D9330F0839571E37D9370E3ED
:101420002A95E1F71124EF90FF900F911F91CF9132
:10143000DF91992787FD90950895E89409C097FB5F
:101440003EF490958095709561957F4F8F4F9F4F9B
:101450009923A9F0F92F96E9BB279395F6958795DF
:1014600077956795B795F111F8CFFAF4BB0F11F4A2
:1014700060FF1BC06F5F7F4F8F4F9F4F16C0882349
:1014800011F096E911C0772321F09EE8872F762F7F
:1014900005C0662371F096E8862F70E060E02AF0C0
:1014A0009A95660F771F881FDAF7880F96958795AC
:1014B00097F908950E946D0A0C94DE0A0E94D00AE2
:1014C00038F00E94D70A20F0952311F00C94C70A37
:1014D0000C94CD0A11240C94120B0E94EF0A70F3A5
:1014E000959FC1F3950F50E0551F629FF001729FC9
:1014F000BB27F00DB11D639FAA27F00DB11DAA1FD8
:10150000649F6627B00DA11D661F829F2227B00D24
:10151000A11D621F739FB00DA11D621F839FA00DAF
:10152000611D221F749F3327A00D611D231F849FFF
:10153000600D211D822F762F6A2F11249F57504056
:101540009AF0F1F088234AF0EE0FFF1FBB1F661FD1
:10155000771F881F91505040A9F79E3F510580F09A
:101560000C94C70A0C94120B5F3FE4F3983ED4F33B
:10157000869577956795B795F795E7959F5FC1F73E
:10158000FE2B880F911D9695879597F9089597F9E9
:101590009F6780E870E060E008959FEF80EC089519
:1015A00000240A9416161706180609060895002442
:1015B0000A9412161306140605060895092E0394BC
:1015C000000C11F4882352F0BB0F40F4BF2B11F430
:1015D00060FF04C06F5F7F4F8F4F9F4F089557FD8F
:1015E0009058440F551F59F05F3F71F04795880F91
:1015F00097FB991F61F09F3F79F087950895121628
:1016000013061406551FF2CF4695F1DF08C01616D3
:1016100017061806991FF1CF869571056105089484
:101620000895E894BB2766277727CB0197F908959B
:101630002F923F924F925F926F927F928F929F92E2
:10164000AF92BF92CF92DF92EF92FF920F931F93D0
:10165000CF93DF93CDB7DEB7CA1BDB0B0FB6F89481
:10166000DEBF0FBECDBF09942A88398848885F84C1
:101670006E847D848C849B84AA84B984C884DF8032
:10168000EE80FD800C811B81AA81B981CE0FD11D16
:101690000FB6F894DEBF0FBECDBFED0108950E94D6
:1016A000630B0C94DE0A0E94D70A58F00E94D00AFD
:1016B00040F029F45F3F29F00C94C70A51110C94B3
:1016C000120B0C94CD0A0E94EF0A68F39923B1F330
:1016D000552391F3951B550BBB27AA276217730758
:1016E000840738F09F5F5F4F220F331F441FAA1FEC
:1016F000A9F335D00E2E3AF0E0E832D091505040A8
:10170000E695001CCAF72BD0FE2F29D0660F771F55
:10171000881FBB1F261737074807AB07B0E809F03B
:10172000BB0B802DBF01FF2793585F4F3AF09E3FC0
:10173000510578F00C94C70A0C94120B5F3FE4F348
:10174000983ED4F3869577956795B795F7959F5F03
:10175000C9F7880F911D9695879597F90895E1E04F
:10176000660F771F881FBB1F621773078407BA07AE
:1017700020F0621B730B840BBA0BEE1F88F7E09509
:101780000895EE0FFF1F0590F491E02D09940F933B
:101790001F93CF93DF938230910510F482E090E0A5
:1017A000E0911302F091140230E020E0B0E0A0E0FC
:1017B000309799F42115310509F44AC0281B390BDB
:1017C00024303105D8F58A819B816115710589F135
:1017D000FB0193838283FE0111C04081518102810C
:1017E000138148175907E0F04817590799F41097E3
:1017F00061F012960C93129713961C933296CF01B8
:10180000DF91CF911F910F910895009313021093D0
:101810001402F4CF2115310551F04217530738F067
:10182000A901DB019A01BD01DF01F801C1CFEF0180
:10183000F9CF9093140280931302CDCFFE01E20FF3
:10184000F31F819391932250310939832883D7CF95
:101850002091110230911202232B41F420910201B8
:101860003091030130931202209311022091000164
:10187000309101012115310541F42DB73EB740915A
:10188000040150910501241B350BE0911102F091E8
:101890001202E217F307A0F42E1B3F0B281739079B
:1018A00078F0AC014E5F5F4F2417350748F04E0FBC
:1018B0005F1F5093120240931102819391939FCF27
:1018C000F0E0E0E09CCFCF93DF930097E9F0FC01DC
:1018D000329713821282A0911302B0911402ED018B
:1018E00030E020E01097A1F420813181820F931F16
:1018F00020911102309112022817390709F061C0B6
:10190000F0931202E0931102DF91CF910895EA0162
:10191000CE17DF07E8F54A815B819E01411551052D
:10192000B1F7E901FB83EA8349915991C40FD51FAF
:10193000EC17FD0761F4808191810296840F951F59
:10194000E90199838883828193819B838A83F0E074
:10195000E0E012968D919C9113970097B9F52D9127
:101960003C911197CD010296820F931F2091110295
:10197000309112022817390739F6309751F5109235
:10198000140210921302B0931202A0931102BCCF62
:10199000D383C28340815181840F951FC817D90713
:1019A00061F44E5F5F4F88819981480F591F5183C1
:1019B00040838A819B81938382832115310509F0BD
:1019C000B0CFF0931402E09313029ECFFD01DC012F
:1019D000C0CF13821282D7CFB0E0A0E0E2EFFCE0EC
:1019E0000C941A0B8C01009751F4CB010E94C70B89
:1019F0008C01C801CDB7DEB7E0E10C94360BFC01D9
:101A0000E60FF71F9C0122503109E217F30708F493
:101A10009DC0D901CD91DC911197C617D70798F0D9
:101A2000C530D10530F3CE0104978617970708F328
:101A3000C61BD70B2297C193D1936D937C93CF0193
:101A40000E94630CD6CF5B01AC1ABD0A4C018C0E10
:101A50009D1EA0911302B0911402512C412CF12C27
:101A6000E12C109731F580911102909112028815A6
:101A7000990509F05CC04616570608F058C08091D9
:101A8000000190910101009741F48DB79EB74091FC
:101A9000040150910501841B950BE817F90708F024
:101AA00055C0F0931202E0931102F9017183608333
:101AB000A0CF8D919C91119712966C9012971396CE
:101AC0007C901397A815B90559F56C0142E0C40E36
:101AD000D11CCA14DB0420F1AC014A195B09DA01FC
:101AE0001296159780F06282738251834083D901E8
:101AF0006D937C93E114F10471F0D7011396FC937C
:101B0000EE93129776CF22968C0F9D1FF901918349
:101B10008083F301EFCFF0931402E093130269CFB7
:101B20004816590608F42C017D01D3019ACFCB0148
:101B30000E94C70B7C01009749F0AE01B8010E94DA
:101B4000A90DC8010E94630C870153CF10E000E08B
:101B500050CFFB01DC0102C001900D92415050407A
:101B6000D8F70895FB01DC0101900D920020E1F708
:061B70000895F894FFCF78
:101B76000000150280000000400014005400000020
:101B860000008F026202A50338025B024802390296
:101B9600000000003C040201A5030101414443206A
:061BA600544553540000F9
:00000001FF
