:020000040000FA
:100000000C9458000C9480000C9480000C94800098
:100010000C9480000C9480000C9480000C94800060
:100020000C9480000C9480000C9480000C94800050
:100030000C9480000C9480000C9480000C94800040
:100040000C948C050C9480000C945A050C94340587
:100050000C9480000C9480000C9480000C94800020
:100060000C94D6050C9480000000000025002800A8
:100070002B00040404040404040402020202020229
:10008000030303030303010204081020408001025C
:1000900004081020010204081020000000080002DB
:1000A0000100000304070000000000000000F50646
:1000B00011241FBECFEFD8E0DEBFCDBF11E0A0E01E
:1000C000B1E0E4EEF1E102C005900D92A036B10777
:1000D000D9F722E0A0E6B1E001C01D92AD3DB20724
:1000E000E1F710E0C8E5D0E004C02197FE010E94CE
:1000F000EA08C735D107C9F70E943D070C94F008FC
:100100000C94000008950895AF92BF92CF92DF92B1
:10011000EF92FF920F931F93CF93DF936C017B01BC
:100120008B01040F151FEB015E01AE18BF08C0174D
:10013000D10759F06991D601ED91FC910190F081C0
:10014000E02DC6010995892B79F7C501DF91CF9183
:100150001F910F91FF90EF90DF90CF90BF90AF90E5
:100160000895FC01538D448D252F30E0842F90E0BD
:10017000821B930B541710F0CF96089501970895A2
:10018000FC01918D828D981761F0A28DAE0FBF2F6B
:10019000B11D5D968C91928D9F5F9F73928F90E0C1
:1001A00008958FEF9FEF0895FC01918D828D981730
:1001B00031F0828DE80FF11D858D90E008958FEF6D
:1001C0009FEF0895FC01918D228D892F90E0805C36
:1001D0009F4F821B91098F739927089588E292E0BF
:1001E0000E94E20021E0892B09F420E0822F08958B
:1001F00080E090E0892B29F00E94EE0081110C94A0
:1002000000000895FC01A48DA80FB92FB11DA35AB9
:10021000BF4F2C91848D90E001968F739927848F26
:10022000A689B7892C93A089B1898C918370806449
:100230008C93938D848D981306C00288F389E02DEA
:1002400080818F7D80830895EF92FF920F931F939B
:10025000CF93DF93EC0181E0888F9B8D8C8D981379
:100260001AC0E889F989808185FF15C09FB7F89485
:10027000EE89FF896083E889F989808183708064D1
:1002800080839FBF81E090E0DF91CF911F910F911C
:10029000FF90EF900895F62E0B8D10E00F5F1F4F2B
:1002A0000F731127E02E8C8D8E110CC00FB607FC3A
:1002B000FACFE889F989808185FFF5CFCE010E94C8
:1002C0000201F1CFEB8DEC0FFD2FF11DE35AFF4F33
:1002D000F0829FB7F8940B8FEA89FB898081806256
:1002E000CFCF682F88E292E00C942401CF93DF9364
:1002F000EC01888D8823B9F0AA89BB89E889F9893E
:100300008C9185FD03C0808186FD0DC00FB607FC72
:10031000F7CF8C9185FFF2CF808185FFEDCFCE01A5
:100320000E940201E9CFDF91CF91089590E0FC0196
:10033000E656FF4F2491FC01EA57FF4F3491FC0130
:10034000EE58FF4FE491EE23C9F0222339F0233019
:1003500001F1A8F4213019F1223029F1F0E0EE0F7B
:10036000FF1FE859FF4FA591B4918FB7F894EC9116
:10037000611126C030953E233C938FBF08952730EE
:10038000A9F02830C9F0243049F7809180008F7D92
:1003900003C0809180008F7780938000DFCF84B589
:1003A0008F7784BDDBCF84B58F7DFBCF8091B0008C
:1003B0008F778093B000D2CF8091B0008F7DF9CF3E
:1003C0003E2BDACF3FB7F89480911A0290911B022E
:1003D000A0911C02B0911D0226B5A89B05C02F3F1D
:1003E00019F00196A11DB11D3FBFBA2FA92F982F5B
:1003F0008827BC01CD01620F711D811D911D42E056
:10040000660F771F881F991F4A95D1F708958F921D
:100410009F92AF92BF92CF92DF92EF92FF924B01E9
:100420005C010E94E2016B017C010E94E2016C19F7
:100430007D098E099F09683E734081059105A8F3E7
:1004400021E0821A9108A108B10888EEC80E83E065
:10045000D81EE11CF11C81149104A104B10429F7F8
:10046000FF90EF90DF90CF90BF90AF909F908F90D4
:10047000089508952091A401260F3327331F2132B8
:100480003105ECF42091ED01FC0190E080E0243096
:1004900069F082E00895A091A4012191AC014C572C
:1004A0005E4FA40FB52FB11D2C930196861798F3BC
:1004B0008091A401680F6093A40180E0089581E019
:1004C00008951092ED0181E08093EC011092C70134
:1004D00061E082E10E94960161E083E10E94960161
:1004E000E9EBF0E080818E7F808380818D7F808347
:1004F00088E48093B80085E48093BC000895CF938E
:10050000DF9391E0909383018823B9F0C091B80004
:10051000D091BA008091BC008A7B8093BC0060E0DF
:1005200082E10E94960160E083E10E9496010E94B0
:100530006102D093BA00C093B800DF91CF910895C3
:100540000895E091250280912402E81730F4F0E04C
:10055000ED59FE4F808190E008958FEF9FEF089551
:1005600090912502809124022FEF3FEF981748F4D5
:10057000E92FF0E0ED59FE4F208130E09F5F90932E
:100580002502C90108958091240290912502891BBA
:10059000990B0895CF92DF92EF92FF920F931F93E2
:1005A000CF93DF937C01CB018A012091F3012223B9
:1005B00089F0EB016B01C40ED51ECC15DD0569F089
:1005C0006991D701ED91FC910190F081E02DC70177
:1005D0000995F3CF642F0E943A02C801DF91CF91B1
:1005E0001F910F91FF90EF90DF90CF900895CF93E0
:1005F000DF931F92CDB7DEB769832091F3012223E9
:10060000F9F020912202203258F021E030E0FC0184
:100610003383228390E080E00F90DF91CF910895A3
:1006200080912302E82FF0E0EC50FE4F99819083F7
:100630008F5F809323028093220281E090E0ECCFD1
:1006400061E0CE0101960E943A02F7CFCF92DF928D
:10065000EF92FF920F931F93CF93DF93FC01C4811E
:1006600021E02093F301C093140210922302109210
:1006700022028385682B85EC92E00E94F702D091DC
:100680002202D13208F092C00E94E2016B017C018B
:100690008091ED01811165C082E08093ED0181E0E0
:1006A0008093EC018FEF8093EB011092EA01D093DD
:1006B000E901A4EFB1E0E9ECF1E080E0D81385C0F6
:1006C0001092C8018091C801CC0FC82BC093C801FB
:1006D0008091C701813009F07CC01092C7010E944F
:1006E000E2016B017C018091C8018093BB00809185
:1006F000EF019091F001A091F101B091F201892BED
:100700008A2B8B2B99F00E94E2010091EF0110914E
:10071000F0012091F1013091F2016C197D098E09EF
:100720009F090617170728073907E0F18091BC00D9
:1007300083FDD9CF85EC8093BC000E94E2016B0160
:100740007C018091ED01823009F445C08091EB017C
:100750008F3F61F18091EB01803241F18091EB019B
:1007600025C08091EF019091F001A091F101B0912D
:10077000F201892B8A2B8B2B09F48ACF0E94E2018C
:100780000091EF011091F0012091F1013091F201FF
:100790006C197D098E099F09061717072807390765
:1007A00008F076CF8091EE010E947F021092230222
:1007B000109222021092F301DF91CF911F910F91BD
:1007C000FF90EF90DF90CF9008959D9191938F5F70
:1007D00075CF85EEB0CF8091EF019091F001A0919F
:1007E000F101B091F201892B8A2B8B2B09F4A9CF4F
:1007F0000E94E2010091EF011091F0012091F101BE
:100800003091F2016C197D098E099F0906171707AF
:100810002807390708F095CFC5CF90E080E008950C
:10082000FC0101900020E9F73197AF01481B590BFB
:10083000BC0181ED92E00C9484000F931F93CF9341
:100840008C01C62F0E9426036C2F6460C8010E9491
:1008500026036C2F6B7FC8010E94260383EC90E077
:100860000197F1F7CF911F910F9108950F931F9367
:10087000CF93DF938C01D62FC42F607F642B0E940F
:100880001D0480E1D89FB00111246C2BC801DF91B9
:10089000CF911F910F910C941D04CF93DF93CDB78F
:1008A000DEB728970FB6F894DEBF0FBECDBF98E035
:1008B000E0E0F1E0DE01119601900D929A95E1F7EA
:1008C0009091D902981708F48FEF90E0880F991F44
:1008D00021E030E02C0F3D1F820F931FFC0160814F
:1008E000606840E081ED92E028960FB6F894DEBF94
:1008F0000FBECDBFDF91CF910C94360441E00E9432
:10090000360481E090E00895CF92DF92EF92FF925B
:100910000F931F93CF93DF93CDB7DEB7A1970FB699
:10092000F894DEBF0FBECDBF80E390E00E9471015E
:1009300088E292E00E94E200892BD1F388E292E003
:100940000E94C000182F8093620188E292E00E940A
:10095000E200892BD1F388E292E00E94C00020E0FF
:10096000312F282B309361012093600181E00E9498
:100970004D0488E391E00E941004209160013091C1
:10098000610150E040E019A28E010F5D1F4F8AE027
:10099000C82ED12CE12CF12CCA01B901A701960176
:1009A0000E94C808605DF80162938F01211531052E
:1009B0004105510589F7309761F001900020E9F772
:1009C0003197AF01401B510BB80181ED92E00E94BD
:1009D00084008CE391E00E941004A1960FB6F89475
:1009E000DEBF0FBECDBFDF91CF911F910F91FF9062
:1009F000EF90DF90CF90089585ED8093BC008091BB
:100A0000EF019091F001A091F101B091F2010796F0
:100A1000A11DB11D23E0B695A795979587952A95B9
:100A2000D1F72091BC0024FD03C01092ED01089580
:100A30004091EF015091F0016091F1017091F2014C
:100A4000452B462B472B69F30097A105B10541F0D3
:100A50002AE22A95F1F700C00197A109B109E1CF77
:100A60008091EE010C947F021F920F920FB60F92AD
:100A700011242F933F934F935F936F937F938F93A3
:100A80009F93AF93BF93EF93FF9388E292E00E940E
:100A90000201FF91EF91BF91AF919F918F917F9153
:100AA0006F915F914F913F912F910F900FBE0F90DB
:100AB0001F9018951F920F920FB60F9211242F932B
:100AC0008F939F93EF93FF93E0913802F091390257
:100AD0008081E0913E02F0913F0282FD1BC0908137
:100AE000809141028F5F8F7320914202821741F003
:100AF000E0914102F0E0E85DFD4F958F8093410267
:100B0000FF91EF919F918F912F910F900FBE0F90BA
:100B10001F9018958081F4CF1F920F920FB60F92FD
:100B200011242F933F938F939F93AF93BF93809103
:100B3000160290911702A0911802B09119023091FB
:100B4000150223E0230F2D3758F50196A11DB11D85
:100B5000209315028093160290931702A093180217
:100B6000B093190280911A0290911B02A0911C026D
:100B7000B0911D020196A11DB11D80931A029093A0
:100B80001B02A0931C02B0931D02BF91AF919F91D5
:100B90008F913F912F910F900FBE0F901F9018953E
:100BA00026E8230F0296A11DB11DD2CF1F920F92EE
:100BB0000FB60F9211242F933F934F935F936F9330
:100BC0007F938F939F93AF93BF93EF93FF93809106
:100BD000B900887F803609F44AC0F0F5883209F4FC
:100BE000A7C018F5803109F49BC0B8F4882309F434
:100BF000F9C0883009F494C0FF91EF91BF91AF9193
:100C00009F918F917F916F915F914F913F912F9124
:100C10000F900FBE0F901F901895883109F488C06F
:100C2000803251F78093EB0114C0803409F49DC0E9
:100C300040F48033B9F38833F9F68093EB0185EC07
:100C4000B0C0803509F485C0883509F496C0883471
:100C500099F60E94FC04D0CF883909F48CC038F58D
:100C6000883729F050F4883611F0803729F683E070
:100C70008093ED011092C60157C0883809F47BC0FB
:100C8000803919F0803809F0B7CF8091C6018032E1
:100C900008F071C0E091C60181E08E0F8093C6011B
:100CA0008091BB00F0E0EA55FE4F80833DC0803B61
:100CB00039F0E0F4803A09F479C0883A09F09CCF21
:100CC00084E08093ED011092A5011092A401E091BF
:100CD0002002F091210209958091A40181110FC099
:100CE00081E08093A4011092840109C0803C09F442
:100CF000A6CF883C09F4A3CF883B09F07DCFE091D3
:100D0000A50181E08E0F8093A501F0E0EC57FE4F26
:100D100080818093BB009091A5018091A40129C09E
:100D20008091C8018093BB0085EC8093BC0064CFA8
:100D30009091EA018091E901981758F5E091EA0154
:100D400081E08E0F8093EA01F0E0E753FE4F80814F
:100D5000E9CFE091EA0181E08E0F8093EA01809172
:100D6000BB00F0E0E753FE4F80839091EA01809151
:100D7000E9019817C8F285E8D8CFE091EA0181E04F
:100D80008E0F8093EA018091BB00F0E0E753FE4FA5
:100D900080838091EC0181115CCF81E08093C70159
:100DA00084EA8093BC001092ED0126CF85EC8093FD
:100DB000BC001092ED018091C601803230F4E091C8
:100DC000C601F0E0EA55FE4F10826091C60170E066
:100DD000E0911E02F0911F0286EA91E009951092BF
:100DE000C6010ACF1092EB0134CFE8E2F2E01382A1
:100DF000128288EE93E0A0E0B0E084839583A6831E
:100E0000B7832CE031E03183208325EC30E0358757
:100E1000248724EC30E03787268720EC30E0318BC4
:100E2000208B21EC30E0338B228B22EC30E0358BB1
:100E3000248B26EC30E0378B268B118E128E138E8E
:100E4000148EE5ECF2E01382128284839583A683EC
:100E5000B7838EE191E091838083E1EDF2E013822C
:100E6000128280E391E09183808387E2848380E132
:100E7000818782E0828713860895789484B58260A2
:100E800084BD84B5816084BD85B5826085BD85B52E
:100E9000816085BD80916E00816080936E001092AC
:100EA0008100809181008260809381008091810027
:100EB00081608093810080918000816080938000B8
:100EC0008091B10084608093B1008091B000816016
:100ED0008093B00080917A00846080937A00809142
:100EE0007A00826080937A0080917A00816080939A
:100EF0007A0080917A00806880937A001092C10015
:100F0000E0913802F091390282E08083E09134026E
:100F1000F09135021082E0913602F091370287E6B7
:100F2000808310924002E0913C02F0913D0286E005
:100F30008083E0913A02F0913B028081806180835E
:100F4000E0913A02F0913B02808188608083E091D9
:100F50003A02F0913B02808180688083E0913A02FE
:100F6000F0913B0280818F7D808310922502109248
:100F7000240210922302109222020E94610282E84F
:100F800090E0909321028093200283E890E0909378
:100F90001F0280931E021092D6028091DB028230E3
:100FA00018F098E09093D6028093D90262E370E043
:100FB00080E090E00E9407026091DC0281ED92E007
:100FC0000E94260368EE73E080E090E00E94070232
:100FD00060E381ED92E00E941D04CBE4D6E4CE01F3
:100FE0000197F1F760E381ED92E00E941D042197E3
:100FF000F1F760E381ED92E00E941D0483E592E049
:101000000197F1F760E281ED92E00E941D0460918A
:10101000D602606240E081ED92E00E94360484E0F6
:101020008093D70240E06CE081ED92E00E943604AC
:1010300040E061E081ED92E00E943604CBE3DFE125
:10104000CE010197F1F782E08093D80240E066E09C
:1010500081ED92E00E94360440E062E081ED92E092
:101060000E943604CE010197F1F788E08093DC02FC
:1010700060E081ED92E00E94260340E061E081EDB6
:1010800092E00E943604CE010197F1F740E062E061
:1010900081ED92E00E9436042197F1F780E00E94F2
:1010A0004D0480E491E00E9410048FEF90E00E94D4
:1010B00071018FEF90E00E9471018FEF90E00E942C
:1010C0007101C0E0D0E090E080E00E94710181E019
:1010D00090E00E94710181E090E00E94710190E037
:1010E00080E00E94710180E00E944D048FE491E055
:1010F0000E94100480E190E00E94710188E292E079
:101100000E94E200892BD1F388E292E00E94C000A5
:10111000809326020E94840480912602882351F342
:1011200081E090E00E94710181E090E00E947101F5
:1011300090E080E00E94710190E080E00E947101E7
:1011400080E00E944D0487E591E00E94100481E157
:1011500090E00E94710188E292E00E94E200892BF7
:10116000D1F388E292E00E94C000809327020E949F
:10117000840480912702813051F3209709F4A3CF92
:101180000E94EE00882309F49ECF0E9400009BCFAE
:10119000A1E21A2EAA1BBB1BFD010DC0AA1FBB1F7B
:1011A000EE1FFF1FA217B307E407F50720F0A21BED
:1011B000B30BE40BF50B661F771F881F991F1A945A
:1011C00069F760957095809590959B01AC01BD0184
:1011D000CF010895EE0FFF1F0590F491E02D0994C3
:1011E000F894FFCF000040001400540000000000FD
:1011F00024018400B1007601E200C000D4000000A8
:101200000000F702CA020D04A002C302B002A1024C
:10121000000000007E0484000D043902566F6C004B
:101220006C747200436F6E6E656374205372546108
:101230006E6B0046696C6C696E6700456D70747901
:04124000696E67006C
:107E0000112484B714BE81FFF0D085E080938100F7
:107E100082E08093C00088E18093C10086E0809377
:107E2000C20080E18093C4008EE0C9D0259A86E02C
:107E300020E33CEF91E0309385002093840096BBD3
:107E4000B09BFECF1D9AA8958150A9F7CC24DD24C4
:107E500088248394B5E0AB2EA1E19A2EF3E0BF2EE7
:107E6000A2D0813461F49FD0082FAFD0023811F036
:107E7000013811F484E001C083E08DD089C08234E0
:107E800011F484E103C0853419F485E0A6D080C0E4
:107E9000853579F488D0E82EFF2485D0082F10E0AE
:107EA000102F00270E291F29000F111F8ED06801E7
:107EB0006FC0863521F484E090D080E0DECF843638
:107EC00009F040C070D06FD0082F6DD080E0C81688
:107ED00080E7D80618F4F601B7BEE895C0E0D1E017
:107EE00062D089930C17E1F7F0E0CF16F0E7DF06D8
:107EF00018F0F601B7BEE89568D007B600FCFDCFD4
:107F0000A601A0E0B1E02C9130E011968C91119780
:107F100090E0982F8827822B932B1296FA010C0160
:107F200087BEE89511244E5F5F4FF1E0A038BF0790
:107F300051F7F601A7BEE89507B600FCFDCF97BE46
:107F4000E89526C08437B1F42ED02DD0F82E2BD052
:107F50003CD0F601EF2C8F010F5F1F4F84911BD097
:107F6000EA94F801C1F70894C11CD11CFA94CF0C13
:107F7000D11C0EC0853739F428D08EE10CD085E9AC
:107F80000AD08FE07ACF813511F488E018D01DD067
:107F900080E101D065CF982F8091C00085FFFCCF94
:107FA0009093C60008958091C00087FFFCCF809118
:107FB000C00084FD01C0A8958091C6000895E0E648
:107FC000F0E098E1908380830895EDDF803219F02E
:107FD00088E0F5DFFFCF84E1DECF1F93182FE3DFCA
:107FE0001150E9F7F2DF1F91089580E0E8DFEE27F6
:047FF000FF270994CA
:027FFE00040479
:00000001FF
