:100000000C94E4000C940C010C940C010C940C0165
:100010000C940C010C940C010C940C010C940C012C
:100020000C940C010C940C010C940C010C940C011C
:100030000C940C010C940C010C940C010C940C010C
:100040000C949C1B0C940C010C940C010C940C0152
:100050000C940C010C940C010C940C010C940C01EC
:100060000C940C010C940C01626C6E6B696E660052
:1000700076657200312E322E3000682D6265617413
:1000800000343500627566662D696E0032353600C3
:100090006465760041726475696E6F20556E6F00FD
:1000A0006370750041546D65676133323850006389
:1000B0006F6E0057353130300066772D747970657A
:1000C00000544D504C33464945454268464B00620A
:1000D00075696C64004170722032352032303233E1
:1000E0002032303A32353A3234000000000000004D
:1000F000250028002B0000000000240027002A0013
:100100000000000023002600290004040404040465
:1001100004040202020202020303030303030102B6
:100120000408102040800102040810200102040885
:100130001020000000080002010000030407000076
:100140000000000000000F010F010F010F010F015F
:100150000F010F010F010F010F010F010F010F011F
:100160000F010F010F010F010F010F010F010F010F
:100170000F010F010F010F010F010F010F010F01FF
:100180000F010F010F013F050E010E010E010E01BF
:100190000E010E010E010E010E010E010E010E01E7
:1001A0000E010E010E010E010E010E010E010E01D7
:1001B0000E010E010E010E010E010E010E010E01C7
:1001C0000E010E010E01971C11241FBECFEFD8E0C7
:1001D000DEBFCDBF11E0A0E0B1E0EEE5FAE402C081
:1001E00005900D92A23EB107D9F722E0A2EEB1E050
:1001F00001C01D92AB3FB207E1F710E0C4EED0E0C2
:1002000004C02197FE010E94EB24C33ED107C9F729
:100210000E943F1D0C942D250C9400000895089514
:100220008CBD9DBD089520E3FC0120833296862F6E
:1002300082958F706F706A3030F4605D6293682FC2
:100240008111F5CF0895695CF9CFFC01818D928D04
:100250000895833081F028F4813099F08230A9F03C
:1002600008958730A9F08830C9F08430B1F48091C6
:1002700080008F7D03C0809180008F778093800005
:10028000089584B58F7784BD089584B58F7DFBCFA5
:100290008091B0008F778093B00008958091B00076
:1002A0008F7DF9CF1F93CF93DF93282F30E0F90193
:1002B000EE5CFE4F8491F901E25EFE4FD491F901AC
:1002C000E65FFE4FC491CC23A9F0162F81110E9446
:1002D0002901EC2FF0E0EE0FFF1FE451FF4FA59135
:1002E000B4918FB7F894EC91111108C0D095DE232A
:1002F000DC938FBFDF91CF911F910895DE2BF8CF54
:10030000CF93DF9390E0FC01E25EFE4F2491865F85
:100310009E4FFC0184918823C9F090E0880F991FBB
:10032000FC01EA50FF4FA591B491FC01E451FF4F4D
:10033000C591D49161110DC09FB7F8948C9120950F
:1003400082238C938881282328839FBFDF91CF91BC
:100350000895623051F49FB7F8943C91822F8095B4
:1003600083238C93E8812E2BEFCF8FB7F894EC91F9
:100370002E2B2C938FBFEACF3FB7F8948091E701E3
:100380009091E801A091E901B091EA0126B5A89BFE
:1003900005C02F3F19F00196A11DB11D3FBFBA2F17
:1003A000A92F982F8827BC01CD01620F711D811DD7
:1003B000911D42E0660F771F881F991F4A95D1F75C
:1003C00008958F929F92AF92BF92CF92DF92EF9259
:1003D000FF926B017C010E94BC014B015C01C114C6
:1003E000D104E104F104B9F00E94BC016819790953
:1003F0008A099B09683E73408105910580F321E0DD
:10040000C21AD108E108F10888EE880E83E0981E30
:10041000A11CB11CE4CFFF90EF90DF90CF90BF9074
:10042000AF909F908F9008952FB7F8946091E3015B
:100430007091E4018091E5019091E6012FBF08954C
:100440004F925F926F927F92AF92BF92CF92DF9264
:10045000EF92FF920F931F93CF93DF93EC016B0109
:100460007B01E40EF51E8B015801AC18BD080E157A
:100470001F0511F10E941402688779878A879B877C
:10048000E881F9810284F385E02DCE01099597FF7B
:1004900023C00E941402488459846A847B846419AE
:1004A0007509860997094C805D806E807F80641590
:1004B00075058605970520F3C501DF91CF911F9142
:1004C0000F91FF90EF90DF90CF90BF90AF907F9013
:1004D0006F905F904F900895F80181938F01C4CF82
:1004E000FC0120812EBD9B012150310941F0518139
:1004F0000DB407FEFDCF4EB55EBD4193F5CF615003
:100500007109860F971F0DB407FEFDCF2EB5FC01B4
:1005100020830895E091EC01F091ED0180819091AC
:10052000EB01892B80830895E091EC01F091ED01BE
:1005300090818091EB0180958923808308958EBD01
:1005400000000DB407FEFDCF8EB50895AF92BF92A7
:10055000CF92DF92EF92FF920F931F93CF93DF938F
:10056000CDB7DEB728970FB6F894DEBF0FBECDBF6C
:100570008C017B016A01809175028333E1F458019B
:10058000A40EB51EA016B10609F46FC00E94940215
:1005900080EF0E949F02812F0E949F02802F0E9465
:1005A0009F020F5F1F4FF70181917F010E949F0201
:1005B0000E948A02E7CF5B01A40EB51E8433C1F40A
:1005C0000E94940219830A838D2D80688B83CC82CC
:1005D00064E070E0CE0101960E947002AE14BF0488
:1005E00009F441C0F70181917F010E949F02F6CF7B
:1005F0000E9494020F3F110509F028F419820A8322
:1006000084E08B830CC017FD17C019820A8333E086
:10061000169507953A95E1F7007E0C600B8386E00E
:10062000C816D104A0F5F701DE011496EA15FB0502
:1006300099F081918D93FACFC80126E09695879520
:100640002A95E1F7807E19830A830115104C10F476
:100650008461D7CF8C61D5CFB6016D5F7F4FCE015E
:1006600001960E9470020E948A02C60128960FB667
:10067000F894DEBF0FBECDBFDF91CF911F910F91D8
:10068000FF90EF90DF90CF90BF90AF90089563E020
:1006900070E0CE0101960E947002F70181917F0106
:1006A0000E949F02AE14BF04C1F7DDCFCF93DF934A
:1006B0001F92CDB7DEB7898341E050E0BE016F5F86
:1006C0007F4F90E080E00E94A6020F90DF91CF91D3
:1006D000089590E020917502233339F40C96982FF9
:1006E000990F990F990F80E008954896F8CFDA0195
:1006F000E091EF01F0E0FE2FEE27E60FF71F90E00C
:10070000982F8827A901BD018E0F9F1F0C94A60268
:10071000CF93DF9300D0CDB7DEB779836A8322E031
:1007200030E0AE014F5F5F4F60E170E00E94770301
:100730000F900F90DF91CF910895CF93DF9300D06A
:10074000CDB7DEB779836A8322E030E0AE014F5F38
:100750005F4F64E070E00E9477030F900F90DF918D
:10076000CF910895CF93DF931F92CDB7DEB720913D
:10077000EF0130E0322F2227260F371F90E0982F0D
:100780008827498341E050E0BE016F5F7F4F820FB1
:10079000931F0E94A6020F90DF91CF910895CF93EF
:1007A000DF931F92CDB7DEB76983DC01ED91FC9139
:1007B0000280F381E02D41E050E0BE016F5F7F4F8A
:1007C00009950F90DF91CF910895FC019485FB016D
:1007D0008485981303C081E0943008F080E0089588
:1007E000CF93DF931F92CDB7DEB76983DC01ED9124
:1007F000FC910280F381E02D41E050E0BE016F5F8B
:100800007F4F09950F90DF91CF9108950895FF9242
:100810000F931F93CF93DF93EB01FC01178A168A86
:100820002A81211109C02B81211106C02C8121119F
:1008300003C02D81222301F141155105E9F08A0100
:10084000FC01F08C80E591E00E941001AE014E5F4A
:100850005F4F24E030E06CE070E08F2D0E94770362
:10086000B8018F2D0E94880381E090E0DF91CF9145
:100870001F910F91FF90089580E0F7CFFC018485D0
:1008800095850895FC0184899589089523E931E0CF
:10089000FC0131832083FB0140895189628973897E
:1008A000FC0142835383648375830895DC01ED91D9
:1008B000FC91048CF58DE02D099490E080E0089582
:1008C000EF92FF920F931F93CF93DF9300D000D04E
:1008D00000D0CDB7DEB7DC01AB0118966D917C91ED
:1008E00019978D919C911197FC012081318161159F
:1008F0007105B9F0D9015096ED91FC91099521E06F
:10090000019709F020E0822F26960FB6F894DEBFFB
:100910000FBECDBFDF91CF911F910F91FF90EF9050
:100920000895F901E684F78423E931E03A832983C5
:1009300014960D911D912D913C9117970B831C835B
:100940002D833E83BE016F5F7F4FF701D7CFFC0140
:100950009485992369F080819181DC01ED91FC916E
:100960000688F789E02D099591E0811101C090E09A
:10097000892F0895DC011C961C921C978D919C91E7
:10098000009739F0DC01ED91FC910488F589E02DA8
:1009900009940895FC01768765870895DC01ED913F
:1009A000FC9102A0F3A1E02D099591E0892708951B
:1009B000862F089581E08627089521E0FC01848533
:1009C000843008F020E0822F089508958F929F923E
:1009D000AF92BF92EF92FF920F931F93CF93DF934B
:1009E000CDB7DEB7A1970FB6F894DEBF0FBECDBF6F
:1009F0007C01FA01CB0119A2223008F42AE08E0111
:100A00000F5D1F4F822E912CB12CA12CBF01A5018F
:100A100094010E944824F901CA016A3074F5605DAE
:100A2000D8016E938D01232B242B252B79F790E091
:100A300080E0109789F0FD0101900020E9F73197DF
:100A4000AF014A1B5B0BD701ED91FC910280F38152
:100A5000E02DB801C7010995A1960FB6F894DEBF45
:100A60000FBECDBFDF91CF911F910F91FF90EF90FF
:100A7000BF90AF909F908F900895695CD1CFFB019C
:100A8000808191810E94762361E0892B09F460E0E6
:100A900082E00C945201AF92BF92CF92DF92EF921C
:100AA000FF920F931F93CF93DF9300D000D0CDB769
:100AB000DEB78C016B017A01809175028333E9F412
:100AC0005B016801C40ED51EC016D106A9F10E94B3
:100AD00094028FE00E949F02812F0E949F02802F2C
:100AE0000E949F020F5F1F4F80E00E949F02F5014E
:100AF00081935F010E948A02E7CF843369F50E94E7
:100B0000940219830A838F2D8F778B83EC8264E0A4
:100B100070E0CE0101960E947002A70170E060E0D3
:100B2000C6010E940725E114F10421F0B701C601B6
:100B30000E9470020E948A02C7010F900F900F90CE
:100B40000F90DF91CF911F910F91FF90EF90DF9069
:100B5000CF90BF90AF9008950E9494020F3F11056F
:100B600009F030F419820A831B8263E070E0D1CF70
:100B700017FD0BC019820A8333E0169507953A9545
:100B8000E1F7007E08600B83F0CFC80126E0969560
:100B900087952A95E1F7807E19830A830115104C09
:100BA00018F480618B83E1CF8861FCCFCF93DF9312
:100BB0001F92CDB7DEB72091EF0130E0322F222710
:100BC000260F371F90E0982F882741E050E0BE01A4
:100BD0006F5F7F4F820F931F0E944B0589810F909B
:100BE000DF91CF910895CF93C82F462F61E070E039
:100BF0000E94B20361E070E08C2F0E94D605811143
:100C0000F9CFCF910895CF93C82F80E591E00E944E
:100C1000100168E070E08C2FCF910C94F305CF9316
:100C2000C82F80E591E00E94100160E170E08C2FF8
:100C3000CF910C94F305CF93DF93EC01888D843032
:100C400020F40E940F0684E0888FDF91CF910895F1
:100C5000CF93C82F80E591E00E94100163E070E01F
:100C60008C2FCF910C94D605CF93DF93EC018C851C
:100C70008430D0F40E942806843189F0882379F0EA
:100C8000883169F021E08C3159F4E881F9810084E0
:100C9000F185E02DCE01099521E0892B09F420E0B2
:100CA000822FDF91CF91089580E0FBCFCF92DF922A
:100CB000EF92FF92CF93DF93EC018C85843068F440
:100CC0000E9403060E9414026B017C018C850E9425
:100CD0002806811109C084E08C87DF91CF91FF90B5
:100CE000EF90DF90CF90089561E070E080E090E0B9
:100CF0000E94E1010E941402AB01BC014C195D0984
:100D00006E097F098D859E85B0E0A0E048175907E0
:100D10006A077B07D8F28C850E940F06DCCFCF9341
:100D2000FC01C08D80E591E00E94100160E270E05E
:100D30008C2F0E94F30562E070E08C2F0E94D60594
:100D400084FD16C062E070E08C2F0E94D60583FF00
:100D50000AC048E162E070E08C2F0E94B20380E09C
:100D600090E0CF91089580E591E00E941001E3CFDB
:100D700040E162E070E08C2F0E94B20381E0F0CF8E
:100D8000CF93DF931F92CDB7DEB741E050E0BE01B5
:100D90006F5F7F4F90E080E00E944B0589810F904C
:100DA000DF91CF910895CF93DF93C4E1D0E00E940B
:100DB000C006882361F061E070E080E090E00E946E
:100DC000E1012197A1F780E0DF91CF91089581E0C3
:100DD000FBCF1F93CF93DF931F92CDB7DEB7182FB2
:100DE00080E591E00E941001812F0E94690327E0B5
:100DF000129FF0011124E75AFD4F22813381377091
:100E000041E050E0BE016F5F7F4F820F931F0E9451
:100E10004B0589810F90DF91CF911F910895FC01BF
:100E2000808D843040F4218D328D232B21F00E945F
:100E3000E90690E008958FEF9FEF0895CF93DF9339
:100E4000FC012485243028F08FEF9FEFDF91CF91B4
:100E50000895EC010190F081E02D0084F185E02DF2
:100E60000995892B89F38C850E94E90690E0EECFE5
:100E7000DA01E091EF01F0E0FE2FEE27E60FF71F19
:100E800090E0982F8827A901BD018E0F9F1F0C9419
:100E90004B058F929F92AF92BF92CF92DF92EF92CB
:100EA000FF921F93CF93DF93CDB7DEB72C970FB68A
:100EB000F894DEBF0FBECDBF2091750214E022234F
:100EC00039F16B017C0180E591E00E9410015E0127
:100ED00027E0A20EB11C450110E063E070E0812F15
:100EE0000E94D605F40181934F01882349F11F5FC9
:100EF000143099F710E0F50181915F018D31D9F03F
:100F00008831C9F08A518230B0F01F5F143099F7F0
:100F1000812F2C960FB6F894DEBF0FBECDBFDF91A8
:100F2000CF911F91FF90EF90DF90CF90BF90AF9047
:100F30009F908F90089560E170E0812F0E94F305EB
:100F4000A12EB12C83EE93E00197F1F742E870E017
:100F500060E0812F0E94B2034FEF62E070E0812FCA
:100F60000E94B203B601C114D10491F48091210111
:100F70009091220101968115F0EC9F0708F45CC066
:100F800090932201809321016091210170912201AF
:100F9000812F0E949D0386E0EDE2F1E0DE011196D3
:100FA00001900D928A95E1F7F70183818F778C8309
:100FB00084818D8385818E83A7014E5F5F4F24E0FE
:100FC00030E06CE070E0812F0E947703B601812F42
:100FD0000E94880326E030E0AE014F5F5F4F66E07D
:100FE00070E0812F0E94770361E070E0812F0E9402
:100FF000F30527E02A9DC0012B9D900D11249C0133
:10100000275A3D4F7901F9011182108222E030E028
:10101000AE01455F5F4F68E270E0812F0E943807A4
:101020008B859C85982789279827F701938382834E
:101030001682158214826CCF80E090ECA1CFCF9203
:10104000DF92EF92FF920F931F93CF93DF9300D025
:1010500000D000D0CDB7DEB78C016B017A01FC0166
:10106000808D843010F40E940F0683E991E09A830A
:101070008983F60182819381A481B5818B839C83CE
:10108000AD83BE83B701CE0101960E944907F801E6
:10109000808F8430A0F4F586E486128E118E81E074
:1010A00026960FB6F894DEBF0FBECDBFDF91CF916D
:1010B0001F910F91FF90EF90DF90CF90089580E007
:1010C000EFCFAF92BF92CF92DF92EF92FF920F934A
:1010D0001F93CF93DF9300D000D000D0CDB7DEB701
:1010E000082F6B0180E591E00E9410019E012F5FA7
:1010F0003F4F7901590110E063E070E0812F0E94B9
:10110000D605F50181935F01882341F11F5F1430FB
:1011100099F710E0F70181917F018D31D1F088318D
:10112000C1F08A518230A8F01F5F143099F7812FE7
:1011300026960FB6F894DEBF0FBECDBFDF91CF91DC
:101140001F910F91FF90EF90DF90CF90BF90AF90E5
:10115000089560E170E0812F0E94F305E12EF12CEB
:1011600083EE93E00197F1F7402F70E060E0812F6C
:101170000E94B2034FEF62E070E0812F0E94B20341
:10118000B601CD2889F48091210190912201019628
:101190008115F0EC9F0798F1909322018093210133
:1011A0006091210170912201812F0E949D0361E0D5
:1011B00070E0812F0E94F30527E02E9DC0012F9D36
:1011C000900D11249C01275A3D4F7901F90111829C
:1011D000108222E030E0AE014B5F5F4F68E270E0CA
:1011E000812F0E9438078D819E8198278927982713
:1011F000F7019383828316821582148298CF80E050
:1012000090ECCACFCF92DF92EF92FF921F93CF93D1
:10121000DF93EC017B016A018C85843048F40E94E5
:101220002806882319F08C850E94030684E08C87A9
:10123000F70182819381A481B5810097A105B10551
:1012400051F490E080E0DF91CF911F91FF90EF90FB
:10125000DF90CF9008958F3F9F4FAF4FBF4F89F3DF
:1012600080917502811103C084E08C87EACF70E021
:1012700060E081E20E946108182F8C87843008F7B3
:1012800080E591E00E941001A7014E5F5F4F24E0CE
:1012900030E06CE070E0812F0E947703B601812F6F
:1012A0000E94880364E070E0812F0E94F3050E9491
:1012B00014026B017C018C850E942806873109F19C
:1012C0008C31F9F0882309F4BCCF0E941402AB01E1
:1012D000BC014C195D096E097F098D859E85B0E0C2
:1012E000A0E084179507A607B70738F061E070E023
:1012F00080E090E00E94E101DECF8C850E940F0625
:10130000B3CF81E090E09FCF0F931F93CF93DF93F4
:10131000EC018B01888D843010F40E940F068091BF
:101320007502811107C094E0988FDF91CF911F91D2
:101330000F910895B80182E00E946108888F84307F
:1013400030F41D870C871A8E198E81E0EECF80E075
:10135000ECCF7F928F929F92AF92BF92CF92DF920B
:10136000EF92FF920F931F93CF93DF9300D0CDB7EF
:10137000DEB7782E8B014A01590122E030E0AE0140
:101380004F5F5F4F64E270E00E943807E980FA80A7
:10139000FE24EF24FE24E00EF11E970137704091E9
:1013A0007502072D10E0433309F042C0085F1F4F5C
:1013B000102F0027110F110F110FC901800F911F5E
:1013C0004733C9F1A9014A0D5B1D4130584098F1DE
:1013D00060E078E06B01C21AD30AA601B4010E9452
:1013E000A602A5014C195D09B4016C0D7D1DC80153
:1013F0000E94A602EA0CFB1CF982EA8222E030E09D
:10140000AE014F5F5F4F64E270E0872D0E9477036B
:101410000F900F90DF91CF911F910F91FF90EF9060
:10142000DF90CF90BF90AF909F908F907F90089566
:10143000005F1F4FBDCFA501B401DACFEF92FF923D
:101440001F93CF93DF9300D0CDB7DEB7182F22E0E4
:1014500030E0AE014F5F5F4F60E270E00E943807FE
:10146000E980FA80FE24EF24FE2422E030E0AE0181
:101470004F5F5F4F60E270E0812F0E9438078981E3
:101480009A81982789279827E816F90689F487E032
:10149000189FF0011124E75AFD4FF582E482C7013D
:1014A0000F900F90DF91CF911F91FF90EF900895D3
:1014B0007C01DBCF1F93CF93DF93182F80E591E062
:1014C0000E941001812F0E941E0AEC0163E070E06F
:1014D000812F0E94D605873121F08C3111F0D0E0A8
:1014E000C0E0CE01DF91CF911F910895CF93DF939C
:1014F000EC018C85843060F40E942806873111F05D
:101500008C3131F48C850E945A0A8115984088F3F9
:10151000DF91CF910895FC018485843010F40C9400
:101520005A0A90E080E008959F92AF92BF92CF92C6
:10153000DF92EF92FF920F931F93CF93DF938C0173
:101540005B01942EE52EFC01C688D788F08C80E5DF
:1015500091E00E9410018F2D0E941E0AC92DDE2DE0
:101560008C179D0708F4EC019E01A501B6018F2D93
:101570000E94A909F801868997898C0F9D1F978B76
:10158000868BCE01DF91CF911F910F91FF90EF904D
:10159000DF90CF90BF90AF909F9008958F929F92D1
:1015A000AF92BF92CF92DF92EF92FF920F931F9371
:1015B000CF936C015B018A01FC01C485C430F0F556
:1015C0007A014130584018F0E12C88E0F82E80E58F
:1015D00091E00E9410018C2F0E941E0A4C0163E0D2
:1015E00070E08C2F0E94D605873111F08C3149F5BF
:1015F0008E149F0460F380E591E00E941001970132
:10160000A50170E060E08C2F0E94A90960E270E003
:101610008C2F0E94F30562E070E08C2F0E94D605AB
:1016200084FD17C063E070E08C2F0E94D605811105
:101630000BC081E090E0F6019383828310E000E02C
:1016400010C0F12CE12CD7CF80E591E00E94100171
:10165000E2CF40E162E070E08C2F0E94B203EF28FD
:1016600041F3C801CF911F910F91FF90EF90DF9050
:10167000CF90BF90AF909F908F900895FF920F935F
:101680001F93CF93DF9300D0CDB7DEB7F82E22E0C3
:1016900030E0AE014F5F5F4F66E270E00E943807B6
:1016A00009811A8110270127102722E030E0AE01BE
:1016B0004F5F5F4F66E270E08F2D0E94380789818F
:1016C0009A819827892798270817190749F4C8018C
:1016D0000F900F90DF91CF911F910F91FF90089580
:1016E0008C01E3CF1F93CF93DF93182F87E0189FD0
:1016F000E0011124C75ADD4F88819981009761F478
:1017000080E591E00E941001812F0E943E0B2E8106
:10171000821B910999838883DF91CF911F9108954E
:10172000FC018485843010F40C94720B90E080E00E
:1017300008954F925F927F928F929F92AF92BF9245
:10174000CF92DF92EF92FF920F931F93CF93DF938D
:1017500000D0CDB7DEB7782E6B014A01A82EB12C90
:1017600027E0829FC0011124FC01E75AFD4F7F0151
:101770000081118180E591E00E9410010815190592
:1017800054F4872D0E943E0BF70126818C01021B29
:101790001109118300830115110529F563E070E03B
:1017A000872D0E94D605843159F0882349F001E045
:1017B00010E08C3111F410E000E011950195110951
:1017C000C8010F900F90DF91CF911F910F91FF9063
:1017D000EF90DF90CF90BF90AF909F908F907F90D1
:1017E0005F904F900895801691060CF4840187E075
:1017F0008A9DF0018B9DF00D1124E75AFD4FE28088
:10180000F380C114D10451F12701F7E05F22872D45
:101810000E946903840D951D20917502273309F4F8
:1018200053C09801240D351D2130384008F44CC0B8
:1018300020E038E0490184189508A401B6010E940F
:101840004B052601480C591C6801C818D908872D7A
:101850000E946903A601B2010E944B05E00EF11E31
:1018600087E08A9DF0018B9DF00D1124E75AFD4F12
:10187000F382E28220813181201B310B318320836E
:101880008681800F912F911D8A3F910510F4232BA3
:10189000F1F487E08A9DF0018B9DF00D1124E75A49
:1018A000FD4F1682F982EA8222E030E0AE014F5FFE
:1018B0005F4F68E270E0872D0E94770360E470E07C
:1018C000872D0E94F3057CCFA801B601C5CF868382
:1018D00077CFCF93DF93FC01218D328D2115310518
:1018E00029F48FEF9FEFDF91CF910895EC01808D68
:1018F0004217530708F0A9010E94990B1816190600
:1019000084F7298D3A8D281B390B3A8F298FEBCF1D
:101910000F931F93CF93DF931F92CDB7DEB7FC01D8
:10192000218D328D232B41F48FEF9FEF0F90DF91AC
:10193000CF911F910F9108958C0141E050E0BE01BD
:101940006F5F7F4FFC01808D0E94990B181619065E
:101950005CF7F801818D928D0197928F818F89813B
:1019600090E0E4CFCF93DF931F92CDB7DEB741E095
:1019700050E0BE016F5F7F4FFC0184850E94990B90
:101980001816190634F4898190E00F90DF91CF91F9
:1019900008958FEF9FEFF9CFFC018485843010F418
:1019A0000C94990B90E080E008950F931F93CF93D0
:1019B000DF9300D0CDB7DEB7FC0124852430E0F4FE
:1019C0008C0180E591E00E94100122E030E0AE0140
:1019D0004F5F5F4F60E170E0F80184850E94380737
:1019E00089819A819827892798270F900F90DF91F6
:1019F000CF911F910F91089590E080E0F6CF0F9363
:101A00001F93CF93DF9300D0CDB7DEB7FC012485C1
:101A10002430E0F48C0180E591E00E94100122E086
:101A200030E0AE014F5F5F4F64E070E0F801848505
:101A30000E94380789819A819827892798270F90D3
:101A40000F90DF91CF911F910F91089590E080E06A
:101A5000F6CFDC0183E991E08D939D9384E0FB0157
:101A600001900D928A95E1F70895EF92FF920F93FE
:101A70001F93CF93DF9300D000D0CDB7DEB78C019A
:101A80007B01FB0184858430A8F083E991E0F801B3
:101A9000918380831282138214821582C8010F9071
:101AA0000F900F900F90DF91CF911F910F91FF90AA
:101AB000EF90089580E591E00E94100124E030E06D
:101AC000AE014F5F5F4F6CE070E0F70184850E94CC
:101AD0003807BE016F5F7F4FC8010E94290DDECF1E
:101AE0000F931F93CF93DF93CDB7DEB728970FB631
:101AF000F894DEBF0FBECDBF8C01D80159964D9131
:101B00005C915A974115510551F0ED91FC91048C6F
:101B1000F58DE02D70E060E0C8010995EECFF80189
:101B2000808D0E94720B892BB1F148E050E0BE011C
:101B30006F5F7F4FD80158968C910E94990B1816B1
:101B40001906F4F4D801509684E0FE013196019014
:101B50000D928A95E1F78D8190E0982F88272E814C
:101B6000820F911DF801958B848B8F81282F30E097
:101B7000322F22278885820F932F911D928F818F7C
:101B800028960FB6F894DEBF0FBECDBFDF91CF9180
:101B90001F910F91089590E080E0F2CF4F925F92F5
:101BA0006F927F928F929F92AF92BF92CF92DF926D
:101BB000EF92FF920F931F93CF93DF93CDB7DEB7D2
:101BC00063970FB6F894DEBF0FBECDBF7C016B01EB
:101BD0003A01FB0120E090E080E06AE0319133239C
:101BE00009F461C040ED430F4A3008F04DC0689FD2
:101BF000A001699F500D1124CA01C097830F911D48
:101C000037FD9A958F3F910549F340F3F7014281E3
:101C10005381648175818091A2029091A302A09169
:101C2000A402B091A502481759076A077B0709F477
:101C30000DC28701085F1F4F0E9414026F70772743
:101C40007C5FC8010E948409813009F004C283E9E5
:101C500091E09A838983F70182819381A481B58180
:101C60008B839C83AD83BE8345E350E0BE016F5FF1
:101C70007F4FC8010E940704892BA9F5D12CC12CE4
:101C8000C8010E941B0617C03E3209F0BFCF2330A7
:101C900009F4BCCFD301A20FB11D12968C932F5F14
:101CA00090E080E09BCF233009F0B0CFF301858333
:101CB000CC24C394D12CC60163960FB6F894DEBF32
:101CC0000FBECDBFDF91CF911F910F91FF90EF908D
:101CD000DF90CF90BF90AF909F908F907F906F904C
:101CE0005F904F9008950E941402F70177836683F6
:101CF00042E050E0B7016A5F7F4FC8010E94940A3A
:101D000081E090E09A83898342E050E0BE016F5FFA
:101D10007F4FC8010E94940A80E091E09A838983F2
:101D200042E050E0BE016F5F7F4FC8010E94940AFD
:101D30001A82198242E050E0BE016F5F7F4FC801F6
:101D40000E94940A42E050E0BE016F5F7F4FC801DD
:101D50000E94940A42E050E0BE016F5F7F4FC801CD
:101D60000E94940A5601F6018081882301F16501E1
:101D7000F60181912F01882311F08E32B1F44601D2
:101D80008A189B081814190474F48D8641E050E0F9
:101D9000BE01635F7F4FC8010E94940AA401B50190
:101DA000C8010E94940A5201DECF6201E1CF1D8674
:101DB00041E050E0BE01635F7F4FC8010E94940A7A
:101DC000C12CDD24D394DA82C98242E050E0BE0106
:101DD0006F5F7F4FC8010E94940ADA82C98242E095
:101DE00050E0BE016F5F7F4FC8010E94940AC80196
:101DF0000E948F06892B09F441CFF3E0AF2EB12C5E
:101E0000230122E0420E511CD4C0F70142815381CC
:101E100064817581808D918DA28DB38D481759078E
:101E20006A077B0709F008C1848D958DC59709F075
:101E300003C181A192A15DEFC52EDD24DA940C9738
:101E40000CF4ADC04CE050E0BE016F5F7F4FC801A5
:101E50000E94690C8B819C819827892798279A8BEF
:101E6000898BF7014681578129813A8142175307AF
:101E700009F0E7C097FFE5C08F7092703BEFC32E6B
:101E8000DD24DA94892B09F08AC06F807884762467
:101E9000672476242AEFC22EDD24DA9461147104BB
:101EA00009F47DC0D12CC12C8D819E819827892772
:101EB0009827C816D906F8F441E050E0BE01635FE8
:101EC0007F4FC8010E94690C4D85442331F050E0DA
:101ED00070E060E0C8010E94690C8D858111ECCF33
:101EE00044E050E070E060E0C8010E94690CFFEF40
:101EF000CF1ADF0AD9CF912C812C41E050E0BE01EE
:101F00006D5E7F4FC8010E94690C4B89842F807CD5
:101F100009F06CC0442331F050E070E060E0C8018B
:101F20000E94690C8B898111E8CF42E050E0BE012C
:101F3000615F7F4FC8010E94690C42E050E0BE0122
:101F4000635F7F4FC8010E94690C44E050E070E07D
:101F500060E0C8010E94690C42E050E0BE016F5E83
:101F60007F4FC8010E94690C8F85988949895A89D9
:101F70008115914009F043C0CD84DE84DC24CD245A
:101F8000DC2481E0C816D104D1F54115544009F094
:101F90004AC044E050E0B201C8010E94690C21E04F
:101FA000A21AB10809F46CCEFFEFCF16DF0609F0D4
:101FB00067CE0E9414023B014C01C8010E94700DC3
:101FC000181619060CF421CF0E941402661977091D
:101FD00088099909693873418105910548F562E3DB
:101FE00070E080E090E00E94E101E7CF41E050E046
:101FF00070E060E0C8010E94690C1B8A93CF5427EF
:102000004527542770E060E0C8010E94690CFFEF8B
:102010008F1A9F0A6814790409F06FCF96EFC92EC2
:10202000DD24DA94BCCFE7EFCE2EDD24DA94B7CFEF
:10203000CC24CA94DC2CB3CF6EEFC62EDD24DA9408
:10204000AECF4CEFC42EDD24DA94A9CF8EEFC82E8C
:10205000DD24DA9430CED12CC12C2DCECF92DF925C
:10206000EF92FF920F931F93CF93DF93CDB7DEB71D
:10207000AF970FB6F894DEBF0FBECDBF7C016A01EB
:1020800003E911E01A8309831C861B8688EE93E01E
:10209000A0E0B0E08D879E87AF87B88B87E391E0A3
:1020A0009A878987188F0F8B198E1A8E1B8E1C8E1C
:1020B00084E089A31BA70AA71CA61DA61EA61FA60F
:1020C0008091960290919702A0919802B091990206
:1020D0008EA39FA3A8A7B9A78B839C83AD83BE8340
:1020E00018861F82AE01465D5F4FCE0101960E94A9
:1020F000CE0D81309105B1F4D701ED91FC910488AA
:10210000F589E02D1DA30CA38CA59DA5AEA5BFA5AB
:102110008EA39FA3A8A7B9A7A601BE016C5D7F4FA0
:10212000C7010995AF960FB6F894DEBF0FBECDBFBD
:10213000DF91CF911F910F91FF90EF90DF90CF90A3
:102140000895CF92DF92EF92FF920F931F93CF9358
:10215000DF93CDB7DEB7AF970FB6F894DEBF0FBEF3
:10216000CDBF8C016B017A0183E991E09A83898369
:102170001B821C821D821E821C861B8648EE53E039
:1021800060E070E04D875E876F87788B27E331E0F2
:102190003A872987988F8F8B198E1A8E1B8E1C8EEB
:1021A00024E029A39BA78AA71CA61DA61EA61FA6DE
:1021B000D8011C968C91843060F40E9428068823F4
:1021C00021F0F80184850E94030684E0D8011C9662
:1021D0008C938091960290919702A0919802B09171
:1021E00099028EA39FA3A8A7B9A78B839C83AD83D5
:1021F000BE8318861F82AE01465D5F4FB601CE01D9
:1022000001960E94CE0D0097C1F0D801ED91FC918E
:102210000684F785E02D83E991E09DA38CA38CA52E
:102220009DA5AEA5BFA58EA39FA3A8A7B9A7A701EB
:10223000BE016C5D7F4FC8010995AF960FB6F8944B
:10224000DEBF0FBECDBFDF91CF911F910F91FF90E9
:10225000EF90DF90CF9008950F931F93CF93DF936C
:10226000EC01FB0101900020E9F78F01061B170B21
:102270008A819B81A801480F591F2C813D81241719
:10228000350768F028813981A801820F931F0E94C9
:10229000FE244A815B81400F511F5B834A83DF919B
:1022A000CF911F910F9108958F929F92AF92BF92FD
:1022B000CF92DF92EF92FF920F931F93CF93DF9312
:1022C0007C01EB016C0182E0C80ED11C4701E5E006
:1022D0008E0E911C10E000E0F60141916F0150E07C
:1022E00070E060E02AE0CE010E94E6045C01E88133
:1022F000F9810190F081E02D6EE2CE0109958A0D01
:102300009B1D080F191FC814D90431F7F701458127
:1023100050E070E060E02AE0CE010E94E604800F09
:10232000911FDF91CF911F910F91FF90EF90DF9060
:10233000CF90BF90AF909F908F9008953F924F9213
:102340005F926F927F928F929F92AF92BF92CF9245
:10235000DF92EF92FF920F931F93CF93DF93CDB74E
:10236000DEB7EA970FB6F894DEBF0FBECDBF7C0193
:102370002A013B0169010E9414024B015C018701A3
:102380000D5B1F4FC8010E94700D181619069CF0B6
:102390000E941402681979098A099B094616570692
:1023A0006806790608F466C162E370E080E090E0B8
:1023B0000E94E101E7CF42E250E0BE016F5F7F4F34
:1023C000C8010E94690C89818230D1F0312C832DA3
:1023D000EA960FB6F894DEBF0FBECDBFDF91CF9166
:1023E0001F910F91FF90EF90DF90CF90BF90AF9033
:1023F0009F908F907F906F905F904F903F90089547
:10240000F801848995898334910501F76D817E8176
:102410008F8198850E9479244B015C01F6018082AE
:102420009182A282B38246E050E0B701685F7F4F9D
:10243000CE014D960E94F124892B41F6F70180814F
:102440009181A281B38188169906AA06BB0608F479
:10245000BDCF84819581A681B78188159905AA058C
:10246000BB0508F4B3CF89899A89AB89BC89868773
:102470009787A08BB18B4EEC50E070E060E0C80114
:102480000E94690C312CC701829698AB8FA7F70187
:10249000B696FAABE9AB08969CAB8BAB67019AE1B9
:1024A000C90ED11CBD96FEABEDABC701429698AFED
:1024B0008FABFD97FAAFE9AF4701FEE18F0E911C9C
:1024C000F801818D928D181619060CF080CFC80185
:1024D0000E94880C8333910509F4B2C014F5813051
:1024E000910509F464C044F4892B51F3C8010E949A
:1024F000880CAC01552775C08330910509F462C082
:102500000697A1F7C8010E94880CB82E44E050E05D
:10251000B401C8010E94690CEB2DE450FF0BAF0120
:1025200060C08A33910509F45FC084F58533910555
:10253000B1F1C697D9F6C8010E94880C5C01B601BA
:10254000CE0189960E94290D8BA59CA5ADA5BEA59F
:10255000892B8A2B8B2BB1F0EDA9FEA940805180ED
:1025600062807380B601CE0183960E94290D8DA1F1
:102570009EA1AFA1B8A5A501481659066A067B061B
:1025800009F0B8CF44E050E0B60118C08B33910594
:1025900009F440C08F3F910509F492CFA7CFC8013D
:1025A0000E94880CC8010E94880C382E89CFC8016F
:1025B0000E94880C44E050E06FA978ADC8010E94E9
:1025C000690C7ECFC8010E94880CB82E44E050E010
:1025D00069AD7AADC8010E94690C8B2D8450990BAE
:1025E000AC0170E060E0EACFC8010E94880C44E0D2
:1025F00050E069A97AA9C8010E94690CF70166A197
:1026000077A180A591A50E94792466A377A380A7CE
:1026100091A756CFC8010E94880C44E050E06BA9F6
:102620007CA9C8010E94690CF70162A573A584A565
:1026300095A50E94792462A773A784A795A740CF88
:10264000C8010E94880C44E050E06FA578A9C80139
:102650000E94690CF70162A173A184A195A10E9457
:10266000792462A373A384A395A366A777A780ABFD
:1026700091AB26CF33243A94AACE7F928F929F9229
:10268000AF92BF92CF92DF92EF92FF920F931F9380
:10269000CF93DF93CDB7DEB7A6970FB6F894DEBF22
:1026A0000FBECDBF8C01762E942E852E20E2A22E59
:1026B000CE0101967C01DC01EA2D1D92EA95E9F735
:1026C0006801F3E4CF0ED11C83E991E09AA389A3BA
:1026D0008FEF8BA38CA38DA38EA343E450E0BE01A8
:1026E0006F5D7F4FC6010E940704019609F4BFC0C9
:1026F00081E089838A8386E0B82EBB821C82D80160
:1027000014966D917D918D919C9117970E947924DB
:102710006D837E838F83988789869A8680E890E090
:102720009C878B874CE150E0B701C6010E94940A58
:10273000FE0137968AE1DF011D928A95E9F748018B
:10274000B8E08B0E911CF401D70101900D92BA9460
:10275000E1F740E150E0B701C6010E94940AF70199
:102760001192AA94E9F796E0A92EB12C40E250E02C
:10277000B701C6010E94940AF1E0AF1AB108B1F79F
:1027800083E6898392E89A8393E59B838C8385E330
:102790008D8381E08E837F829DE3988797E0998780
:1027A0008A8786E0F401DE011B9601900D928A95DE
:1027B000E1F78CE0898B8A8B65E971E0CE01439665
:1027C0000E941725D8011B966C91CE0149960E9454
:1027D0001301F8016485CE014B960E941301D801C4
:1027E0001D966C91CE014D960E9413014EE150E072
:1027F000B701C6010E94940AB3E07B121EC082E3B7
:10280000898384E08A83F80196859B8397859C83DE
:1028100090899D8391899E8396E39F838887828D8B
:102820008987838D8A87848D8B87858D8C874CE003
:1028300050E0B701C6010E94940A87E3898386E0CD
:102840008A8391E09B8393E09C838D838FE08E83CA
:102850008AE38F838BE388878FEF898749E050E095
:10286000B701C6010E94940AC6010E948F06A6966F
:102870000FB6F894DEBF0FBECDBFDF91CF911F9191
:102880000F91FF90EF90DF90CF90BF90AF909F900F
:102890008F907F9008953F924F925F926F927F92B8
:1028A0008F929F92AF92BF92CF92DF92EF92FF9260
:1028B0000F931F93CF93DF93CDB7DEB7A3970FB6D8
:1028C000F894DEBF0FBECDBF5C010DB71EB71BA3D2
:1028D0000AA360E070E0CB010E94E101D50191966E
:1028E0008D919C919297912C029709F49BC09096A0
:1028F0008C9190978F5F90968C9390975E962D9188
:102900003C91232B19F09924939485C08330D8F7F8
:10291000F501828593850E94A704882309F4B1C339
:102920008E010F5F1F4F380150E1452E512CD5010C
:102930001A96ED91FC9180819181DC01ED91FC91E1
:102940000084F185E02D0995181619060CF099C33D
:10295000D5011A96ED91FC9145E050E0BE01695E0B
:102960007F4F808191810E942002009701F305979B
:1029700009F04AC0888D998D982789279827998FC3
:10298000888F0A8D1B8D1027012710271B8F0A8F18
:10299000892BD1F18F8981116AC00E941402F5013F
:1029A000608B718B828B938B21A132A14A8D5B8DC1
:1029B000232B09F057C0288D398D2130310509F0BE
:1029C00051C049305105E1F0483C510519F04430FF
:1029D0005105D1F4D50158966D937D938D939C93B9
:1029E0005B97E1E0F0E09296FC93EE939197C5013E
:1029F0000E942D1C60E070E0CB010E94E10197CFA6
:102A000083E090E092A381A3D5011A968D919C91C9
:102A10000E94BA04912CD50190968C919097815088
:102A200090968C93892DAAA1BBA10FB6F894BEBF36
:102A30000FBEADBFA3960FB6F894DEBF0FBECDBFDD
:102A4000DF91CF911F910F91FF90EF90DF90CF908A
:102A5000BF90AF909F908F907F906F905F904F90BE
:102A60003F9008954530510509F061CFCDCFF50174
:102A7000828593850130F1E01F0740F0D5019296E1
:102A80001C921E9291970E94BA0451CF8DB69EB6A9
:102A900098012F5F3F4FEDB7FEB7E21BF30B0FB668
:102AA000F894FEBF0FBEEDBF2DB73EB72F5F3F4F6F
:102AB0007901A801B901DC018D919C910E9420024D
:102AC0008017910709F05FC0EA8DFB8DEE0DFF1DA9
:102AD00010820E941402F501608B718B828B938BA4
:102AE0008F89843109F4ACC0E8F48F3009F4A8C0B0
:102AF000813109F4A9C2863009F0BBC2488D598DD5
:102B0000D12CC12CF12CE12C08EC10E030E020E0BD
:102B100060E0C5010E945A190FB6F8949EBE0FBE20
:102B20008DBE05CF8932C9F08733B1F38D3109F0FD
:102B3000A0C2D50181A192A1892B01F7E1E0F0E0CB
:102B40009296FC93EE939197C5010E942D1C60E034
:102B500070E0CB010E94E101D1CF86859785892B5A
:102B600039F480E490E00E94AD21F50197878687D3
:102B70000A8D1B8D0E0D1F1DFA82E9821C830B83AB
:102B8000E016F10630F00FB6F8949EBE0FBE8DBE73
:102B90003BCF40E450E0B701D5011E968D919C914A
:102BA0000E941E25D5011E96ED91FC9117AEC30122
:102BB0000E94E61BFC018081918180179107E8F556
:102BC00089819A810097A9F12B813C818217930713
:102BD00080F50E9494238B01D5011A968D919C91CA
:102BE0000E94BA04D5011A96ED91FC911B971E968E
:102BF0008D919C911F97918780871387028792966A
:102C00001C921E9291970E941402DC01CB018858FD
:102C10009341A109B109F501848B958BA68BB78BE4
:102C2000808B918BA28BB38B808F918FA28FB38F70
:102C300073CF60E070E0CB01CECF00E510E0CCCFE9
:102C4000888D998DD5015F969C938E935E970A8DA2
:102C50001B8D19A308A36801CE0CDF1CFD8EEC8E22
:102C6000DF8ECE8EEC14FD0408F083C1D7010D91E8
:102C70001C91CE014C960E94E61BFC018081918143
:102C80008C159D0508F075C18C8D9D8DDC012C91F6
:102C9000213409F065C001960E9476234EE0342E5F
:102CA000380E06970CF461C00637B2E71B0709F42B
:102CB00060C108F0EEC20136F2E71F0709F4D4C282
:102CC000043622E7120709F060C033243A947A8A66
:102CD000698A1C8A1B8A5E8A4D8A6AEA71E0CE0183
:102CE00041960E942C11032D10E0B801CE014196AF
:102CF0000E94081CF801EE5CFE4F8491F801E25E30
:102D0000FE4FF490065F1E4FF801049160E070E002
:102D1000002389F081110E942901E02FF0E0EE0FDD
:102D2000FF1FE050FF4FA591B491EC91FE2261E0AE
:102D300070E009F460E0CE0141960E94081C0B8906
:102D40001C890150110929893A89D12CC12CF12CF7
:102D5000E12C50E040E064E1C5010E945A1909C12C
:102D6000CE014C960E94F91B382E0637B2E71B079E
:102D700009F422C1E0F40136F2E71F0709F4AAC002
:102D8000043622E7120709F4A2CF00371D4609F4E2
:102D900066C0D5015E964D915C91D12CC12CF12C71
:102DA000E12C02E010E030E020E060E0D5CF043616
:102DB00047E7140709F473C0063757E7150709F406
:102DC00014C10136174729F7CE014C960E94E61B25
:102DD000DC018D919C918C159D0508F0CAC061E0C5
:102DE000832D0E948001CE014C960E94F91B8C011C
:102DF00061E0832D0E9480010115110509F465C071
:102E00000F3F110509F090C061E060C0CE014C9603
:102E10000E94F91BF82ECE014C960E94E61B0C8DE9
:102E20001D8D6CE971E0C8010E940E2560E0892BC0
:102E300079F06FE971E0C8010E940E25892B39F005
:102E400063EA71E0C8010E940E25892BE9F461E074
:102E50008F2D0E948001CE014C960E94E61B8C8D26
:102E60009D8D8C159D0508F084C0DC012C912134CA
:102E700069F601960E9476233EE0F32EF80E06973F
:102E800054F2FF24FA94C7CF67EA71E0C8010E94A8
:102E90000E25892B01F762E0DBCF33243A94CE0173
:102EA0004C960E94E61BDC018D919C918C159D0532
:102EB00008F05FC061E0832D0E948001CE014C9636
:102EC0000E94F91B61E0892B09F460E0832D0E94C8
:102ED00052014FC07A8A698A1C8A1B8A5E8A4D8A8F
:102EE0006DEA71E0CE0141960E942C11632D70E0D5
:102EF000CE0141960E94081CBDE0B31510F4E2EF2C
:102F00003E0E832D8770806480937C0080917A00D0
:102F1000806480937A0080917A0086FDFCCF609176
:102F200078007091790007CFE32DF0E0EE5CFE4F62
:102F3000E491E33039F148F4E130B9F0E230E9F0FE
:102F4000003811050CF060CFC0CFE73029F1E83030
:102F500059F1E430A9F7809180008062809380006D
:102F600010938B0000938A0004C084B5806884BDF0
:102F700007BDF501178E168ECFCD84B5806284BD56
:102F800008BDF7CF80918000806880938000109307
:102F9000890000938800EDCF8091B0008068809315
:102FA000B0000093B300E5CF8091B00080628093C1
:102FB000B0000093B400DDCF3982BFE1B315C8F291
:102FC000E32DF0E0EE0FFF1FEA5BFE4F25913491F9
:102FD0002115310571F2E1E02F303E0751F2C301B6
:102FE000F9010995C6CF33243A94CE014C960E943C
:102FF000E61B2C8D3D8DC9018E199F0908A119A1D1
:10300000081B190B3A8329831C830B831E830D83B2
:10301000398A1FE1131508F4ACCFE32DF0E0EE0F71
:10302000FF1FEA57FE4F259134912115310509F410
:10303000A0CF41E02E30340709F49BCFB301CE017D
:103040004196F901099595CF8A8D9B8D8E0D9F1D17
:10305000FA82E9829C838B83E816F90608F05CCD3E
:10306000C3010E94E61BD5015F961C921E925E97DB
:1030700053CDF50112A211A2828593850E94BA0454
:103080004BCD0E9414022B013C01F50182859385F2
:103090000E94A704D50191962D913C9121303105D4
:1030A00009F05EC0F501811109C0408E518E628E1B
:1030B000738E12A211A282859385AACC80899189F0
:1030C000A289B38993018201081B190B2A0B3B0BC0
:1030D000D901C801893116EF9107A105B10548F75B
:1030E000893C9F4AA105B10590F484899589A689F8
:1030F000B78993018201081B190B2A0B3B0BD901DD
:10310000C801893C9F4AA105B10508F4FCCBF50133
:10311000808D918DA28DB38D93018201081B190BB7
:103120002A0B3B0BD901C80181379741A105B10595
:1031300008F4E9CBD12CC12CF12CE12C10E000E0FB
:1031400030E020E050E040E066E0C5010E945A19FE
:10315000D50158964D925D926D927C925B97D3CB40
:10316000232B09F0D0CBF501408D518D628D738DED
:1031700093018201041B150B260B370BB901A80123
:10318000882381F0413757416105710508F4BBCBB5
:10319000828593850E94BA04D50192961C921E9254
:1031A000919738CC493853416105710508F4ABCB90
:1031B000828593850E94BA04D5011A960D911C91BF
:1031C000F80162857385C8010E946004D8011C96CD
:1031D0008C931C9781110DC01A968D919C9180350E
:1031E000910599F460E97FE1C8010E946004F8014B
:1031F0008487F8019484911014C0D50158964D929B
:103200005D926D927C925B9706CC80399F4189F7E5
:1032100060E570E0C8010E946004D8011C968C93A0
:10322000E8CF81E090E0F501958F848F2485358586
:10323000F90101900020E9F731978F01021B130B70
:10324000D12CC12CF12CE12C41E050E06DE1C50105
:103250000E945A19F50184899589A689B789808FBA
:10326000918FA28FB38FD7CB7A8A698A1C8A1B8AE7
:103270005E8A4D8A6DEA71E0CE0141960E942C1162
:103280006FEF70E0CE0141960E94081C33243A94FF
:1032900036CE043647E7140709F4FFCD063757E763
:1032A000150709F4A0CE0136174709F072CD332473
:1032B0003A948ACD2F923F924F925F926F927F9273
:1032C0008F929F92AF92BF92CF92DF92EF92FF9236
:1032D0000F931F93CF93DF93CDB7DEB7C854D109B7
:1032E0000FB6F894DEBF0FBECDBF4C0168AF5AAF2A
:1032F00049AF27963FAF2EAF279721961FAF0EAF4E
:1033000021972996FFAEEEAE29972396DFAECEAE7B
:103310002397DC011A968D919C910E94A704882323
:1033200009F4B7C1B8ADBB2351F0B63041F0BD319F
:1033300031F0F40181A192A1019709F0AAC188ADF1
:103340008F508630A0F5D40154964D915D916D91CA
:103350007C9157975096CD90DD90ED90FC905397CF
:10336000C416D506E606F70610F46A017B01B2E43E
:10337000CB0ED11CE11CF11C0E941402A701960186
:10338000261B370B480B590BDA01C901B7FD9BC14E
:10339000C4010E944B140E941402A7019601261B2F
:1033A000370B480B590BDA01C901B7FFF1CFF40114
:1033B00080819181019709F0B2C082E090E0918311
:1033C0008083228133814481558166817781808524
:1033D0009185A0E0FE017A960E94DF2409F486C15F
:1033E000FBABEAAB1DAA1CAA88E190E09FAB8EABB9
:1033F0006AE971E0CE01C2960E942C11D4011296A6
:103400004C90129713965C90139714966C901497A7
:1034100015967C9015971696BC91BBAFF401F78179
:10342000FCAFD40118962C90189719963C90198EE1
:103430009201A3016BAD7F2FC101A0E00E94DF24A8
:1034400009F44AC1FE0179962596FFAFEEAF2597A4
:1034500027E130E03EAF2DAF8AE0A82EB12CC12C81
:10346000D12CE12CF12C00E010E09201A3016BAD16
:103470007CADC1010E948024F901EE54FE4F808191
:103480002596AEADBFAD25978E932596BFAFAEAF57
:103490002597EDADFEAD3197FEAFEDAF9AE0A92EC9
:1034A000B12CC12CD12CE12CF12C00E010E09201C8
:1034B000A3016BAD7CADC1010E94822429013A01B8
:1034C0006BAF7CAF1C01A0E00E94DF2421F04DAD6A
:1034D0005EAD452B09F66DAD7EAD6C0F7D1F6E5F49
:1034E0007F4F09F0FEC0EAA9FBA98CA99DA99C0108
:1034F0002F5F3F4F3DAB2CABE80FF91F10820CA99B
:103500001DA9015011092AA93BA9D12CC12CF12CCC
:10351000E12C50E040E065E1C4010E945A1929AD58
:103520003AAD232BB9F4D4015E960D90BC91A02D39
:10353000BAAFA9AFAB2B71F4F401848D958D0196D0
:1035400009F4E9C0958F848FF401048CF58DE02D8A
:10355000FAAFE9AF27962EAD3FAD279721960EAD76
:103560001FAD21970B5F1F4F232B11F405E010E0D7
:1035700029964EAD5FAD299790E080E0452B21F074
:1035800023968EAD9FAD2397080F191F58AD598311
:1035900089AD9AAD9827892798279B838A8321969E
:1035A0008EAD9FAD21972396AEADBFAD23978A0F09
:1035B0009B1F9827892798279D838C83D4011A966F
:1035C000ED91FC9180819181DC01ED91FC91028073
:1035D000F381E02D45E050E0BE016F5F7F4F09951C
:1035E0007C0160E070E0CB010E94E101B8ADBB233B
:1035F00009F444C02196EEADFFAD2197EF2BE1F029
:10360000D4011A96ED91FC9180819181DC01ED91BC
:10361000FC910280F381E02D21964EAD5FAD2197A4
:1036200027966EAD7FAD27970995E80EF91E60E0ED
:1036300070E0CB010E94E1012396EEADFFAD239730
:10364000EF2BE1F0D4011A96ED91FC9180819181EC
:10365000DC01ED91FC910280F381E02D23964EADCB
:103660005FAD239729966EAD7FAD29970995E80E3A
:10367000F91E60E070E0CB010E94E101E016F10666
:1036800009F44EC0F40112A211A2828593850E9412
:10369000BA04C85BDF4F0FB6F894DEBF0FBECDBFD4
:1036A000DF91CF911F910F91FF90EF90DF90CF901E
:1036B000BF90AF909F908F907F906F905F904F9052
:1036C0003F902F900895D40190968C9181116FCEE8
:1036D000C4010E944B146BCE80E3888FBE01685EEC
:1036E0007F4FCE01C2960E942C1109CFFA83E98345
:1036F0001C821B8284E090E09E838D8360EB71E0EE
:10370000CE0101960E942C110B811C8101501109E0
:1037100029813A81FACE81E090E0958F848F14CF91
:103720000E941402D40154966D937D938D939C93C3
:103730005797AFCF0C9449221F920F920FB60F925A
:1037400011242F933F938F939F93AF93BF938091B7
:10375000E3019091E401A091E501B091E60130917F
:10376000E20123E0230F2D3758F50196A11DB11D6D
:103770002093E2018093E3019093E401A093E5019B
:10378000B093E6018091E7019091E801A091E901F1
:10379000B091EA010196A11DB11D8093E7019093BC
:1037A000E801A093E901B093EA01BF91AF919F9125
:1037B0008F913F912F910F900FBE0F901F901895F2
:1037C00026E8230F0296A11DB11DD2CFDC01ED9199
:1037D000FC911197309761F012962D913C911397BF
:1037E000E217F30728F401900020E9F7ED93FC932A
:1037F0000895FC0180819181009739F02281338105
:103800008217930710F40C94762390E080E00895DB
:103810000F931F93CF93DF93CDB7DEB728970FB6E3
:10382000F894DEBF0FBECDBF8C01CB014AE0BE01D4
:103830006F5F7F4F0E94C423BE016F5F7F4FC8013F
:103840000E942C1128960FB6F894DEBF0FBECDBF94
:10385000DF91CF911F910F910895AF92BF92CF92B8
:10386000DF92EF92FF920F931F93CF93DF93CDB729
:10387000DEB7C05CD1090FB6F894DEBF0FBECDBF76
:103880005C01CE0185589F4FC554DF4F99838883D3
:10389000CB5BD040C354DF4F19821882CD5BD04040
:1038A00080E490E0C154DF4F99838883CF5BD040A0
:1038B00063EC71E0CE0185549F4F0E942C1168EC9F
:1038C00071E0CE0185549F4F0E942C114AE750E0D1
:1038D00060E770E0CE0101960E94BB23C354DF4F26
:1038E000C880D980CD5BD040C554DF4FE880F980D7
:1038F000CB5BD0400AE710E09E012F5F3F4F50E0C6
:1039000040E061E1C5010E945A19C054DF4F0FB673
:10391000F894DEBF0FBECDBFDF91CF911F910F9105
:10392000FF90EF90DF90CF90BF90AF900895E6E7C3
:10393000F2E083E991E09183808312821382148202
:103940001582ECE7F2E09183808312821382148265
:103950001582E2E8F2E0918380831282138214825E
:103960001582E8E8F2E09183808312821382148248
:103970001582EEE8F2E09183808312821382148232
:103980001582EAE9F2E09183808312821382148225
:103990001582E4E9F2E0918380831282138214821B
:1039A0001582E0EAF2E0918380831282138214820E
:1039B0001582E6EAF2E091838083128213821482F8
:1039C0001582E1EFF2E091838083128213821482E8
:1039D0001582E2EEF2E01382128221E631E03183B9
:1039E000208324E0248728EE33E036872587A5ED61
:1039F000B2E013969C938E93129714961D921D928B
:103A00001D921C92179719961C921E9218971B963E
:103A10001C921E921A971C961C921C971196FC934E
:103A2000EE9340E757E160E070E04483558366839E
:103A30007783ECEAF2E01182108212821382148200
:103A400015821682178210861186B387A287158683
:103A5000148617861686108A118A128A138A148A87
:103A6000158A168A178A108E118E128E138E158E55
:103A7000148E178E168E10A212A211A20895CF9343
:103A8000DF93CDB7DEB72A970FB6F894DEBF0FBE2F
:103A9000CDBF789484B5826084BD84B5816084BDD7
:103AA00085B5826085BD85B5816085BD80916E00DC
:103AB000816080936E00109281008091810082600D
:103AC000809381008091810081608093810080914A
:103AD00080008160809380008091B1008460809339
:103AE000B1008091B00081608093B00080917A0035
:103AF000846080937A0080917A00826080937A005B
:103B000080917A00816080937A0080917A00806849
:103B100080937A001092C1008EEF8093CF029DEEC9
:103B20009093D0022AEB2093D1028093D20280930B
:103B3000D3029093D40220E031E0D9010D9000200F
:103B4000E9F79D0121503140A0E0B1E0E1E0F0E073
:103B5000AD01405051404217530784F4AF014F5F0D
:103B60005F4F6D91E455FD4F83A1862783A34630B7
:103B7000510514F041E050E0FA01EACF8091510282
:103B800081112AC0109239021092380288EE93E017
:103B9000A0E0B0E080933A0290933B02A0933C02F5
:103BA000B0933D0287E391E0909337028093360211
:103BB00083E991E09093450280934402109246027B
:103BC00010924702109248021092490284E08093BA
:103BD0004E0281E08093510283EF91E09093F201D5
:103BE0008093F1018091F0018111ADC060E372E03A
:103BF00080E090E00E94E101DFB6F89404E111E07A
:103C0000E8E2EE2EE1E0FE2E8091EE01811125C06A
:103C1000F8018491F7019491E82FF0E0EE0FFF1F77
:103C2000EA50FF4FA591B4918C91982321F461E063
:103C30008AE00E94520161E08AE00E9480018CB516
:103C400080618CBD8CB580648CBD61E08DE00E948C
:103C5000800161E08BE00E9480018091EE018F5F26
:103C60008093EE01DFBEF8010491E02FF0E0EE0F4B
:103C7000FF1FE451FF4F859194919093ED01809344
:103C8000EC01F701E490E092EB0161E08AE00E9430
:103C900080010E948A0280E591E00E94100184E385
:103CA0008093750280E80E9456030E94D306882301
:103CB00009F4FEC188E00E9456030E94C0068830C5
:103CC00009F0F6C180E10E9456030E94C0068031CF
:103CD00009F0EEC180E00E9456030E94C006182F32
:103CE0008111E6C141E050E0BE016F5F7F4F8FE17F
:103CF00090E00E944B058981833009F0D9C180E4AE
:103D00008093EF0142E06EE170E0812F0E94B203E8
:103D100042E06FE170E0812F0E94B2031F5F143018
:103D200089F740E06EE170E0812F0E94B20340E02D
:103D30006FE170E0812F0E94B2031F5F183089F796
:103D400081E08093F00180E591E00E94100146E05F
:103D500050E06FEC72E089E090E00E94A60283E9F7
:103D600091E09A8389831B821C821D821E8244E01B
:103D700050E0BE016D5F7F4F8FE090E00E94A60291
:103D80000091F1011091F201D80192961D921D92BD
:103D90001D921C929597F80116A217A210A611A6C3
:103DA0009A961D921D921D921C929D9780E69AEE06
:103DB000A0E0B0E086AB97ABA0AFB1AF80EA9FE0E8
:103DC000A0E0B0E082AF93AFA4AFB5AFD801189632
:103DD00086E0FD01282F11922A95E9F79801225FCC
:103DE0003F4F94E1F90111929A95E9F7EFECF2E077
:103DF00001900D928A95E1F7C8018E5B9F4F9A87DB
:103E00008987DC011C920E941E232FEC37E040E0E2
:103E100050E00E941624DC01CB010196A11DB11DCA
:103E2000F80184839583A683B78380839183A283DB
:103E3000B3835801F3E4AF0EB11CC5010E941B0609
:103E400064E470E0C5010E948409882309F499C1E3
:103E50000E9414022B013C0148EEC42E43E0D42EF4
:103E6000E12CF12C52E0252E912C812CA985BA85CC
:103E70008C918330B9F181118EC1F80184819581D3
:103E8000A681B7810196A11DB11D84839583A68368
:103E9000B7830E9414026419750986099709A7015E
:103EA00096010E944824A90161E0C8010E943D13C7
:103EB00081E0A985BA858C93F1E08F169104B1F267
:103EC0000E9414026419750986099709D801D696CB
:103ED0002D913D914D915C91D99726173707480751
:103EE000590710F6C5010E941B06F80184819581CF
:103EF000A681B7810196A11DB11D84839583A683F8
:103F0000B7830E941402F801FE9660837183828356
:103F100093838A94892809F034C180E591E00E9456
:103F200010010091F1011091F201B801625F7F4F21
:103F3000CE0101960E94290D44E050E0BE016D5F64
:103F40007F4F8FE090E00E94A602B8016A5E7F4F2B
:103F5000CE0101960E94290D44E050E0BE016D5F44
:103F60007F4F81E090E00E94A602B8016E5E7F4F15
:103F7000CE0101960E94290D44E050E0BE016D5F24
:103F80007F4F85E090E00E94A602B801625E7F4FFD
:103F9000CE0101960E94290D8B819C81AD81BE814D
:103FA0008093960290939702A0939802B0939902FF
:103FB0000E94BC017F7380912101909122016827AA
:103FC0007927709322016093210168EE73E080E00D
:103FD00090E00E94E10183E991E09A8389831B824A
:103FE0001C821D821E8280E591E00E94100144E047
:103FF00050E0BE016D5F7F4F8FE090E00E944B0567
:1040000080E091E09093B9028093B8020E9414027C
:10401000DC01CB0188589341A109B1098093C0020A
:104020009093C102A093C202B093C3028093BC02DA
:104030009093BD02A093BE02B093BF028093C402CE
:104040009093C502A093C602B093C702E091B60256
:10405000F091B70286ED91E09187808780E590E04E
:10406000938782878091B6029091B7020E94BA042A
:104070001092CE021092CD020E9414026B017C01BC
:104080008091CD029091CE02019709F44FC10E9418
:1040900014026C197D098E099F09603576448105EB
:1040A000910508F043C18CEA92E00E944B14E8CFDE
:1040B00087E38093750280E80E9456030E94D3062E
:1040C000882329F188E00E9456030E94C0068830A8
:1040D000F1F480E10E9456030E94C006182F80313F
:1040E000B1F480E00E9456030E94C00681110FC007
:1040F00041E050E0BE016F5F7F4F89E390E00E9496
:104100004B058981843019F41093EF0119CE83E3B4
:104110008093750280E80E9456030E94D30688238C
:1041200071F180E10E9456030E94C006803139F58A
:1041300082E10E9456030E94C006823101F580E0B0
:104140000E9456030E94C006811119C084E080932A
:10415000EF0115E5188741E050E0BE01685F7F4F31
:104160008BE190E00E94A6021F8341E050E0BE0177
:10417000695F7F4F8AE190E00E94A602E1CD109234
:10418000750260E177E280E090E00E94E101F0E0FA
:10419000E0E00995FFCF8430F9F4F801848195813E
:1041A000A681B7810196A11DB11D84839583A68345
:1041B000B7830E9414026419750986099709A7013B
:1041C00096010E944824A90163E0C8010E943D13A2
:1041D000A985BA852C9270CE813059F5F80142AD8F
:1041E00053AD64AD75AD9E012F5F3F4FC8010E9476
:1041F0009E11382EF2E08F1392C089819A81AB8193
:10420000BC81F80184839583A683B7830E9414023E
:104210006419750986099709A70196010E94482427
:10422000A90163E0C8010E943D13A985BA853C92AB
:1042300043CE823009F040CEF80142AD53AD64ADBB
:1042400075AD9E012F5F3F4FC8010E949E11382E11
:10425000F5E08F135DC0E3E0A985BA85EC93F80122
:1042600082A193A1A4A1B5A1892B8A2B8B2B41F408
:1042700084E893E0A0E0B0E082A393A3A4A3B5A355
:10428000F80186A197A1A0A5B1A5892B8A2B8B2B1C
:1042900061F482A193A1A4A1B5A1B695A795979524
:1042A000879586A397A3A0A7B1A7F80182A593A598
:1042B000A4A5B5A5892B8A2B8B2BA9F482A193A148
:1042C000A4A1B5A1AC01BD0123E0769567955795F2
:1042D00047952A95D1F7841B950BA60BB70B82A7A0
:1042E00093A7A4A7B5A7F80186A197A1A0A5B1A5FA
:1042F00086A797A7A0ABB1AB82A593A5A4A5B5A5AA
:1043000082AB93ABA4ABB5AB88248394912CD4CD72
:10431000F6E08F1304C0A985BA851C92CDCDBFEFFE
:104320003B12CACDE985FA851082C6CD8091CD02B7
:104330009091CE02019709F095CE61E082E00E9453
:10434000800100E010E08CEA92E00E944B1401151D
:104350001105C9F30E940000F6CF0F931F93CF936E
:10436000DF938230910510F482E090E0E091F90251
:10437000F091FA0230E020E0B0E0A0E0309799F44C
:104380002115310509F44AC0281B390B24303105A9
:10439000D8F58A819B816115710589F1FB019383B1
:1043A0008283FE0111C0408151810281138148172F
:1043B0005907E0F04817590799F4109761F01296E1
:1043C0000C93129713961C933296CF01DF91CF91E5
:1043D0001F910F9108950093F9021093FA02F4CF00
:1043E0002115310551F04217530738F0A901DB01BF
:1043F0009A01BD01DF01F801C1CFEF01F9CF909320
:10440000FA028093F902CDCFFE01E20FF31F8193F0
:1044100091932250310939832883D7CF2091F70215
:104420003091F802232B41F420912501309126018F
:104430003093F8022093F702209123013091240158
:104440002115310541F42DB73EB740912701509118
:104450002801241B350BE091F702F091F802E217D6
:10446000F307A0F42E1B3F0B2817390778F0AC0197
:104470004E5F5F4F2417350748F04E0F5F1F509374
:10448000F8024093F702819391939FCFF0E0E0E030
:104490009CCFCF93DF930097E9F0FC013297138212
:1044A0001282A091F902B091FA02ED0130E020E011
:1044B0001097A1F420813181820F931F2091F70280
:1044C0003091F8022817390709F061C0F093F8021B
:1044D000E093F702DF91CF910895EA01CE17DF074D
:1044E000E8F54A815B819E0141155105B1F7E9016B
:1044F000FB83EA8349915991C40FD51FEC17FD073F
:1045000061F4808191810296840F951FE90199835E
:104510008883828193819B838A83F0E0E0E0129616
:104520008D919C9113970097B9F52D913C9111971E
:10453000CD010296820F931F2091F7023091F8026D
:104540002817390739F6309751F51092FA02109270
:10455000F902B093F802A093F702BCCFD383C283D1
:1045600040815181840F951FC817D90761F44E5FB0
:104570005F4F88819981480F591F518340838A81F9
:104580009B81938382832115310509F0B0CFF0938D
:10459000FA02E093F9029ECFFD01DC01C0CF138245
:1045A0001282D7CF8F929F92AF92BF92CF92DF921B
:1045B000EF92FF92CF93DF93EC01688179818A813A
:1045C0009B81611571058105910521F464E279ED06
:1045D0008BE597E02DE133EF41E050E00E94162497
:1045E00049015A019B01AC01A7EAB1E40E943524BC
:1045F0006B017C01ACEEB4EFA50194010E94432451
:10460000C60ED71EE81EF91EF7FE06C081E0C81AC6
:10461000D108E10880E8F80AC882D982EA82FB82E0
:10462000C701B6019F77DF91CF91FF90EF90DF90A8
:10463000CF90BF90AF909F908F9008958F929F9250
:10464000AF92BF92CF92DF92EF92FF9260912901D9
:1046500070912A0180912B0190912C0161157105B7
:104660008105910521F464E279ED8BE597E02DE178
:1046700033EF41E050E00E94162449015A019B01AA
:10468000AC01A7EAB1E40E9435246B017C01ACEED9
:10469000B4EFA50194010E944324C60ED71EE81E64
:1046A000F91EF7FE06C081E0C81AD108E10880E8CB
:1046B000F80AC0922901D0922A01E0922B01F092CF
:1046C0002C01C701B6019F77FF90EF90DF90CF904C
:1046D000BF90AF909F908F90089560932901709341
:1046E0002A0180932B0190932C010895FC018827C7
:1046F0009927E89421912032E9F3293010F02E30E7
:10470000C8F32B3241F02D3239F4689404C00E9472
:10471000E423820F911D219120532A30C0F31EF40F
:10472000909581959F4F08951F93FC0199278827A5
:10473000BC01E89411911032E9F3193010F01E30E9
:10474000C8F31B3251F01D3249F4689406C00E9430
:10475000CF23610F711D811D911D119110531A30CE
:10476000B0F33EF490958095709561957F4F8F4F93
:104770009F4F1F910895FB01DC0102C005900D922F
:1047800041505040D8F70895BB274A3031F499235F
:1047900022F4BDE2909581959F4F0C94ED23592F03
:1047A000482F372F262F660F771F881F991F660FF8
:1047B000771F881F991F620F731F841F951F660F35
:1047C000771F881F991F08957AE0979F902D879FE4
:1047D000802D910D11240895BB27FB015527AA2791
:1047E000880F991FAA1FA41710F0A41B839550517E
:1047F000B9F7A05DAA3308F0A95DA193009779F7F6
:10480000B111B1931192CB010C940624DC01FC018F
:10481000672F71917723E1F7329704C07C916D93F4
:1048200070836291AE17BF07C8F30895052E97FBFA
:104830001EF400940E942D2457FD07D00E944824A6
:1048400007FC03D04EF40C942D24509540953095E0
:1048500021953F4F4F4F5F4F0895909580957095EC
:1048600061957F4F8F4F9F4F08950E946A24A59FA7
:10487000900DB49F900DA49F800D911D112408955B
:10488000B7FF0C9435240E943524821B930B0895A6
:10489000A1E21A2EAA1BBB1BFD010DC0AA1FBB1F44
:1048A000EE1FFF1FA217B307E407F50720F0A21BB6
:1048B000B30BE40BF50B661F771F881F991F1A9423
:1048C00069F760957095809590959B01AC01BD014D
:1048D000CF010895A29FB001B39FC001A39F700DA7
:1048E000811D1124911DB29F700D811D1124911DF8
:1048F00008956927962769277827872778270895B5
:10490000689401C0E8948F929F92CF93DF930E94A6
:104910008E24DF91CF919F908F90089588249924C1
:10492000F401E401B0E49F93AA279A158B049C0438
:10493000ED05FE05CF05D007A10798F4AD2FDC2FBC
:10494000CF2FFE2FE92D982C892E982F872F762F89
:10495000652F542F432F322F2227B85031F7BF91A4
:1049600027C01B2EBF91BB27220F331F441F551F8B
:10497000661F771F881F991F881C991CEE1FFF1F39
:10498000CC1FDD1FAA1FBB1F8A149B04EC05FD056D
:10499000CE05DF05A007B10748F08A189B08EC098F
:1049A000FD09CE09DF09A00BB10B21601A94E1F6D5
:1049B0002EF49401AF01BE01CD01000C0895002436
:1049C000A7FD00942A1730054005500560057005C5
:1049D000800590050895EE0FFF1F0590F491E02DDE
:1049E0000994FB01DC0104C08D910190801921F430
:1049F00041505040C8F7881B990B0895FB01DC011A
:104A000002C001900D9241505040D8F70895DC014A
:104A100001C06D9341505040E0F70895FB01DC0167
:104A20008D91019080190110D9F3990B0895FB0124
:104A3000DC0101900D920020E1F70895FB01DC01FB
:104A40004150504048F001900D920020C9F701C03C
:0E4A50001D9241505040E0F70895F894FFCFBA
:104A5E00503770466234743770635F553455457AFB
:104A6E006B467A6831357536694766385345453138
:104A7E000000C00000FB0280000100000001005E8B
:104A8E0000000000000000CF03940A5D040F012512
:104A9E0001880C0F0784091F081B0607042E108FB0
:104AAE0006700D690C5604460442043E04000000D4
:104ABE0000F003CE0A8B0A760A900BB20C1E070288
:104ACE0009A110CC0C56063406DD04E5049A1BDA57
:104ADE0004D804E503CE04FF0C350DD50CCA040032
:104AEE00000000541157495A6E657400696E006FCC
:104AFE0075740070776D00707500647700617700D3
:104B0E00620030313233343536373839616263649E
:104B1E00656600746D706C00544D504C33464945BB
:104B2E00454268464B00626C796E6B2E636C6F75F6
:024B3E00640011
:00000001FF
